{
  "contractName": "Big3NFT",
  "abi": [
    {
      "inputs": [],
      "stateMutability": "nonpayable",
      "type": "constructor"
    },
    {
      "anonymous": false,
      "inputs": [
        {
          "indexed": true,
          "internalType": "address",
          "name": "owner",
          "type": "address"
        },
        {
          "indexed": true,
          "internalType": "address",
          "name": "approved",
          "type": "address"
        },
        {
          "indexed": true,
          "internalType": "uint256",
          "name": "tokenId",
          "type": "uint256"
        }
      ],
      "name": "Approval",
      "type": "event"
    },
    {
      "anonymous": false,
      "inputs": [
        {
          "indexed": true,
          "internalType": "address",
          "name": "owner",
          "type": "address"
        },
        {
          "indexed": true,
          "internalType": "address",
          "name": "operator",
          "type": "address"
        },
        {
          "indexed": false,
          "internalType": "bool",
          "name": "approved",
          "type": "bool"
        }
      ],
      "name": "ApprovalForAll",
      "type": "event"
    },
    {
      "anonymous": false,
      "inputs": [
        {
          "indexed": true,
          "internalType": "address",
          "name": "previousOwner",
          "type": "address"
        },
        {
          "indexed": true,
          "internalType": "address",
          "name": "newOwner",
          "type": "address"
        }
      ],
      "name": "OwnershipTransferred",
      "type": "event"
    },
    {
      "anonymous": false,
      "inputs": [
        {
          "indexed": true,
          "internalType": "address",
          "name": "from",
          "type": "address"
        },
        {
          "indexed": true,
          "internalType": "address",
          "name": "to",
          "type": "address"
        },
        {
          "indexed": true,
          "internalType": "uint256",
          "name": "tokenId",
          "type": "uint256"
        }
      ],
      "name": "Transfer",
      "type": "event"
    },
    {
      "inputs": [],
      "name": "_price",
      "outputs": [
        {
          "internalType": "uint256",
          "name": "",
          "type": "uint256"
        }
      ],
      "stateMutability": "view",
      "type": "function",
      "constant": true
    },
    {
      "inputs": [
        {
          "internalType": "address",
          "name": "to",
          "type": "address"
        },
        {
          "internalType": "uint256",
          "name": "tokenId",
          "type": "uint256"
        }
      ],
      "name": "approve",
      "outputs": [],
      "stateMutability": "nonpayable",
      "type": "function"
    },
    {
      "inputs": [
        {
          "internalType": "address",
          "name": "owner",
          "type": "address"
        }
      ],
      "name": "balanceOf",
      "outputs": [
        {
          "internalType": "uint256",
          "name": "",
          "type": "uint256"
        }
      ],
      "stateMutability": "view",
      "type": "function",
      "constant": true
    },
    {
      "inputs": [
        {
          "internalType": "uint256",
          "name": "tokenId",
          "type": "uint256"
        }
      ],
      "name": "getApproved",
      "outputs": [
        {
          "internalType": "address",
          "name": "",
          "type": "address"
        }
      ],
      "stateMutability": "view",
      "type": "function",
      "constant": true
    },
    {
      "inputs": [
        {
          "internalType": "address",
          "name": "owner",
          "type": "address"
        },
        {
          "internalType": "address",
          "name": "operator",
          "type": "address"
        }
      ],
      "name": "isApprovedForAll",
      "outputs": [
        {
          "internalType": "bool",
          "name": "",
          "type": "bool"
        }
      ],
      "stateMutability": "view",
      "type": "function",
      "constant": true
    },
    {
      "inputs": [],
      "name": "maxPerWallet",
      "outputs": [
        {
          "internalType": "uint256",
          "name": "",
          "type": "uint256"
        }
      ],
      "stateMutability": "view",
      "type": "function",
      "constant": true
    },
    {
      "inputs": [],
      "name": "maxSupply",
      "outputs": [
        {
          "internalType": "uint256",
          "name": "",
          "type": "uint256"
        }
      ],
      "stateMutability": "view",
      "type": "function",
      "constant": true
    },
    {
      "inputs": [],
      "name": "name",
      "outputs": [
        {
          "internalType": "string",
          "name": "",
          "type": "string"
        }
      ],
      "stateMutability": "view",
      "type": "function",
      "constant": true
    },
    {
      "inputs": [],
      "name": "owner",
      "outputs": [
        {
          "internalType": "address",
          "name": "",
          "type": "address"
        }
      ],
      "stateMutability": "view",
      "type": "function",
      "constant": true
    },
    {
      "inputs": [
        {
          "internalType": "uint256",
          "name": "tokenId",
          "type": "uint256"
        }
      ],
      "name": "ownerOf",
      "outputs": [
        {
          "internalType": "address",
          "name": "",
          "type": "address"
        }
      ],
      "stateMutability": "view",
      "type": "function",
      "constant": true
    },
    {
      "inputs": [],
      "name": "paused",
      "outputs": [
        {
          "internalType": "bool",
          "name": "",
          "type": "bool"
        }
      ],
      "stateMutability": "view",
      "type": "function",
      "constant": true
    },
    {
      "inputs": [],
      "name": "renounceOwnership",
      "outputs": [],
      "stateMutability": "nonpayable",
      "type": "function"
    },
    {
      "inputs": [
        {
          "internalType": "address",
          "name": "from",
          "type": "address"
        },
        {
          "internalType": "address",
          "name": "to",
          "type": "address"
        },
        {
          "internalType": "uint256",
          "name": "tokenId",
          "type": "uint256"
        }
      ],
      "name": "safeTransferFrom",
      "outputs": [],
      "stateMutability": "nonpayable",
      "type": "function"
    },
    {
      "inputs": [
        {
          "internalType": "address",
          "name": "from",
          "type": "address"
        },
        {
          "internalType": "address",
          "name": "to",
          "type": "address"
        },
        {
          "internalType": "uint256",
          "name": "tokenId",
          "type": "uint256"
        },
        {
          "internalType": "bytes",
          "name": "data",
          "type": "bytes"
        }
      ],
      "name": "safeTransferFrom",
      "outputs": [],
      "stateMutability": "nonpayable",
      "type": "function"
    },
    {
      "inputs": [
        {
          "internalType": "address",
          "name": "operator",
          "type": "address"
        },
        {
          "internalType": "bool",
          "name": "approved",
          "type": "bool"
        }
      ],
      "name": "setApprovalForAll",
      "outputs": [],
      "stateMutability": "nonpayable",
      "type": "function"
    },
    {
      "inputs": [
        {
          "internalType": "bytes4",
          "name": "interfaceId",
          "type": "bytes4"
        }
      ],
      "name": "supportsInterface",
      "outputs": [
        {
          "internalType": "bool",
          "name": "",
          "type": "bool"
        }
      ],
      "stateMutability": "view",
      "type": "function",
      "constant": true
    },
    {
      "inputs": [],
      "name": "symbol",
      "outputs": [
        {
          "internalType": "string",
          "name": "",
          "type": "string"
        }
      ],
      "stateMutability": "view",
      "type": "function",
      "constant": true
    },
    {
      "inputs": [
        {
          "internalType": "uint256",
          "name": "tokenId",
          "type": "uint256"
        }
      ],
      "name": "tokenURI",
      "outputs": [
        {
          "internalType": "string",
          "name": "",
          "type": "string"
        }
      ],
      "stateMutability": "view",
      "type": "function",
      "constant": true
    },
    {
      "inputs": [
        {
          "internalType": "address",
          "name": "from",
          "type": "address"
        },
        {
          "internalType": "address",
          "name": "to",
          "type": "address"
        },
        {
          "internalType": "uint256",
          "name": "tokenId",
          "type": "uint256"
        }
      ],
      "name": "transferFrom",
      "outputs": [],
      "stateMutability": "nonpayable",
      "type": "function"
    },
    {
      "inputs": [
        {
          "internalType": "address",
          "name": "newOwner",
          "type": "address"
        }
      ],
      "name": "transferOwnership",
      "outputs": [],
      "stateMutability": "nonpayable",
      "type": "function"
    },
    {
      "inputs": [
        {
          "internalType": "address",
          "name": "",
          "type": "address"
        }
      ],
      "name": "walletMints",
      "outputs": [
        {
          "internalType": "uint256",
          "name": "",
          "type": "uint256"
        }
      ],
      "stateMutability": "view",
      "type": "function",
      "constant": true
    },
    {
      "inputs": [
        {
          "internalType": "string",
          "name": "baseURI",
          "type": "string"
        }
      ],
      "name": "setBaseURI",
      "outputs": [],
      "stateMutability": "nonpayable",
      "type": "function"
    },
    {
      "inputs": [
        {
          "internalType": "address",
          "name": "_to",
          "type": "address"
        },
        {
          "internalType": "string",
          "name": "_tokensBaseURI",
          "type": "string"
        },
        {
          "internalType": "uint256",
          "name": "_qty",
          "type": "uint256"
        }
      ],
      "name": "devMint",
      "outputs": [],
      "stateMutability": "nonpayable",
      "type": "function"
    },
    {
      "inputs": [
        {
          "internalType": "uint256",
          "name": "newPrice",
          "type": "uint256"
        }
      ],
      "name": "setPrice",
      "outputs": [],
      "stateMutability": "nonpayable",
      "type": "function"
    },
    {
      "inputs": [
        {
          "internalType": "bool",
          "name": "_pause",
          "type": "bool"
        }
      ],
      "name": "setPause",
      "outputs": [],
      "stateMutability": "nonpayable",
      "type": "function"
    },
    {
      "inputs": [
        {
          "internalType": "string",
          "name": "_tokenURI",
          "type": "string"
        }
      ],
      "name": "mint",
      "outputs": [],
      "stateMutability": "payable",
      "type": "function",
      "payable": true
    },
    {
      "inputs": [
        {
          "internalType": "string",
          "name": "_tokensBaseURI",
          "type": "string"
        },
        {
          "internalType": "uint256",
          "name": "_qty",
          "type": "uint256"
        }
      ],
      "name": "mintMultiple",
      "outputs": [],
      "stateMutability": "payable",
      "type": "function",
      "payable": true
    },
    {
      "inputs": [
        {
          "internalType": "address payable",
          "name": "_to",
          "type": "address"
        }
      ],
      "name": "withdraw",
      "outputs": [],
      "stateMutability": "nonpayable",
      "type": "function"
    }
  ],
  "bytecode": "0x60806040523480156200001157600080fd5b506040518060400160405280600781526020017f426967334e4654000000000000000000000000000000000000000000000000008152506040518060400160405280600381526020017f42334e000000000000000000000000000000000000000000000000000000000081525081600090816200008f919062000454565b508060019081620000a1919062000454565b505050620000c4620000b86200010c60201b60201c565b6200011460201b60201c565b6001600881905550612710600a81905550662386f26fc10000600c819055506001600b60006101000a81548160ff0219169083151502179055506014600d819055506200053b565b600033905090565b6000600760009054906101000a900473ffffffffffffffffffffffffffffffffffffffff16905081600760006101000a81548173ffffffffffffffffffffffffffffffffffffffff021916908373ffffffffffffffffffffffffffffffffffffffff1602179055508173ffffffffffffffffffffffffffffffffffffffff168173ffffffffffffffffffffffffffffffffffffffff167f8be0079c531659141344cd1fd0a4f28419497f9722a3daafe3b4186f6b6457e060405160405180910390a35050565b600081519050919050565b7f4e487b7100000000000000000000000000000000000000000000000000000000600052604160045260246000fd5b7f4e487b7100000000000000000000000000000000000000000000000000000000600052602260045260246000fd5b600060028204905060018216806200025c57607f821691505b60208210810362000272576200027162000214565b5b50919050565b60008190508160005260206000209050919050565b60006020601f8301049050919050565b600082821b905092915050565b600060088302620002dc7fffffffffffffffffffffffffffffffffffffffffffffffffffffffffffffffff826200029d565b620002e886836200029d565b95508019841693508086168417925050509392505050565b6000819050919050565b6000819050919050565b6000620003356200032f620003298462000300565b6200030a565b62000300565b9050919050565b6000819050919050565b620003518362000314565b6200036962000360826200033c565b848454620002aa565b825550505050565b600090565b6200038062000371565b6200038d81848462000346565b505050565b5b81811015620003b557620003a960008262000376565b60018101905062000393565b5050565b601f8211156200040457620003ce8162000278565b620003d9846200028d565b81016020851015620003e9578190505b62000401620003f8856200028d565b83018262000392565b50505b505050565b600082821c905092915050565b6000620004296000198460080262000409565b1980831691505092915050565b600062000444838362000416565b9150826002028217905092915050565b6200045f82620001da565b67ffffffffffffffff8111156200047b576200047a620001e5565b5b62000487825462000243565b62000494828285620003b9565b600060209050601f831160018114620004cc5760008415620004b7578287015190505b620004c3858262000436565b86555062000533565b601f198416620004dc8662000278565b60005b828110156200050657848901518255600182019150602085019450602081019050620004df565b8683101562000526578489015162000522601f89168262000416565b8355505b6001600288020188555050505b505050505050565b613bb2806200054b6000396000f3fe6080604052600436106101b75760003560e01c8063715018a6116100ec578063bedb86fb1161008a578063d85d3d2711610064578063d85d3d27146105e7578063e985e9c514610603578063f0293fd314610640578063f2fde38b1461067d576101b7565b8063bedb86fb14610556578063c87b56dd1461057f578063d5abeb01146105bc576101b7565b806395d89b41116100c657806395d89b41146104bd578063a22cb465146104e8578063a23e7f3014610511578063b88d4fde1461052d576101b7565b8063715018a6146104525780638da5cb5b1461046957806391b7f5ed14610494576101b7565b806342842e0e1161015957806355f804b31161013357806355f804b3146103845780635c975abb146103ad5780636352211e146103d857806370a0823114610415576101b7565b806342842e0e14610307578063453c23101461033057806351cff8d91461035b576101b7565b8063095ea7b311610195578063095ea7b31461026157806309ebd9661461028a578063235b6ea1146102b357806323b872dd146102de576101b7565b806301ffc9a7146101bc57806306fdde03146101f9578063081812fc14610224575b600080fd5b3480156101c857600080fd5b506101e360048036038101906101de9190612290565b6106a6565b6040516101f091906122d8565b60405180910390f35b34801561020557600080fd5b5061020e610788565b60405161021b9190612383565b60405180910390f35b34801561023057600080fd5b5061024b600480360381019061024691906123db565b61081a565b6040516102589190612449565b60405180910390f35b34801561026d57600080fd5b5061028860048036038101906102839190612490565b610860565b005b34801561029657600080fd5b506102b160048036038101906102ac9190612535565b610977565b005b3480156102bf57600080fd5b506102c8610a24565b6040516102d591906125b8565b60405180910390f35b3480156102ea57600080fd5b50610305600480360381019061030091906125d3565b610a2a565b005b34801561031357600080fd5b5061032e600480360381019061032991906125d3565b610a8a565b005b34801561033c57600080fd5b50610345610aaa565b60405161035291906125b8565b60405180910390f35b34801561036757600080fd5b50610382600480360381019061037d9190612664565b610ab0565b005b34801561039057600080fd5b506103ab60048036038101906103a69190612691565b610b45565b005b3480156103b957600080fd5b506103c2610b5b565b6040516103cf91906122d8565b60405180910390f35b3480156103e457600080fd5b506103ff60048036038101906103fa91906123db565b610b6e565b60405161040c9190612449565b60405180910390f35b34801561042157600080fd5b5061043c600480360381019061043791906126de565b610c1f565b60405161044991906125b8565b60405180910390f35b34801561045e57600080fd5b50610467610cd6565b005b34801561047557600080fd5b5061047e610cea565b60405161048b9190612449565b60405180910390f35b3480156104a057600080fd5b506104bb60048036038101906104b691906123db565b610d14565b005b3480156104c957600080fd5b506104d2610d26565b6040516104df9190612383565b60405180910390f35b3480156104f457600080fd5b5061050f600480360381019061050a9190612737565b610db8565b005b61052b60048036038101906105269190612777565b610dce565b005b34801561053957600080fd5b50610554600480360381019061054f9190612907565b610f1b565b005b34801561056257600080fd5b5061057d6004803603810190610578919061298a565b610f7d565b005b34801561058b57600080fd5b506105a660048036038101906105a191906123db565b610fa2565b6040516105b39190612383565b60405180910390f35b3480156105c857600080fd5b506105d16110b4565b6040516105de91906125b8565b60405180910390f35b61060160048036038101906105fc9190612a58565b6110ba565b005b34801561060f57600080fd5b5061062a60048036038101906106259190612aa1565b61121b565b60405161063791906122d8565b60405180910390f35b34801561064c57600080fd5b50610667600480360381019061066291906126de565b6112af565b60405161067491906125b8565b60405180910390f35b34801561068957600080fd5b506106a4600480360381019061069f91906126de565b6112c7565b005b60007f80ac58cd000000000000000000000000000000000000000000000000000000007bffffffffffffffffffffffffffffffffffffffffffffffffffffffff1916827bffffffffffffffffffffffffffffffffffffffffffffffffffffffff1916148061077157507f5b5e139f000000000000000000000000000000000000000000000000000000007bffffffffffffffffffffffffffffffffffffffffffffffffffffffff1916827bffffffffffffffffffffffffffffffffffffffffffffffffffffffff1916145b8061078157506107808261134a565b5b9050919050565b60606000805461079790612b10565b80601f01602080910402602001604051908101604052809291908181526020018280546107c390612b10565b80156108105780601f106107e557610100808354040283529160200191610810565b820191906000526020600020905b8154815290600101906020018083116107f357829003601f168201915b5050505050905090565b6000610825826113b4565b6004600083815260200190815260200160002060009054906101000a900473ffffffffffffffffffffffffffffffffffffffff169050919050565b600061086b82610b6e565b90508073ffffffffffffffffffffffffffffffffffffffff168373ffffffffffffffffffffffffffffffffffffffff16036108db576040517f08c379a00000000000000000000000000000000000000000000000000000000081526004016108d290612bb3565b60405180910390fd5b8073ffffffffffffffffffffffffffffffffffffffff166108fa6113ff565b73ffffffffffffffffffffffffffffffffffffffff1614806109295750610928816109236113ff565b61121b565b5b610968576040517f08c379a000000000000000000000000000000000000000000000000000000000815260040161095f90612c45565b60405180910390fd5b6109728383611407565b505050565b61097f6114c0565b6001600b60006101000a81548160ff02191690831515021790556109d8576040517f08c379a00000000000000000000000000000000000000000000000000000000081526004016109cf90612cb1565b60405180910390fd5b6109e28383610b45565b60005b81811015610a1d576109f7600961153e565b610a0a85610a056009611554565b611562565b8080610a1590612d00565b9150506109e5565b5050505050565b600c5481565b610a3b610a356113ff565b82611580565b610a7a576040517f08c379a0000000000000000000000000000000000000000000000000000000008152600401610a7190612dba565b60405180910390fd5b610a85838383611615565b505050565b610aa583838360405180602001604052806000815250610f1b565b505050565b600d5481565b610ab86114c0565b60004711610afb576040517f08c379a0000000000000000000000000000000000000000000000000000000008152600401610af290612e4c565b60405180910390fd5b8073ffffffffffffffffffffffffffffffffffffffff166108fc479081150290604051600060405180830381858888f19350505050158015610b41573d6000803e3d6000fd5b5050565b8181600f9182610b56929190613023565b505050565b600b60009054906101000a900460ff1681565b6000806002600084815260200190815260200160002060009054906101000a900473ffffffffffffffffffffffffffffffffffffffff169050600073ffffffffffffffffffffffffffffffffffffffff168173ffffffffffffffffffffffffffffffffffffffff1603610c16576040517f08c379a0000000000000000000000000000000000000000000000000000000008152600401610c0d9061313f565b60405180910390fd5b80915050919050565b60008073ffffffffffffffffffffffffffffffffffffffff168273ffffffffffffffffffffffffffffffffffffffff1603610c8f576040517f08c379a0000000000000000000000000000000000000000000000000000000008152600401610c86906131d1565b60405180910390fd5b600360008373ffffffffffffffffffffffffffffffffffffffff1673ffffffffffffffffffffffffffffffffffffffff168152602001908152602001600020549050919050565b610cde6114c0565b610ce8600061187b565b565b6000600760009054906101000a900473ffffffffffffffffffffffffffffffffffffffff16905090565b610d1c6114c0565b80600c8190555050565b606060018054610d3590612b10565b80601f0160208091040260200160405190810160405280929190818152602001828054610d6190612b10565b8015610dae5780601f10610d8357610100808354040283529160200191610dae565b820191906000526020600020905b815481529060010190602001808311610d9157829003601f168201915b5050505050905090565b610dca610dc36113ff565b8383611941565b5050565b6000600b60006101000a81548160ff0219169083151502179055610e27576040517f08c379a0000000000000000000000000000000000000000000000000000000008152600401610e1e9061323d565b60405180910390fd5b600d5481600e60003373ffffffffffffffffffffffffffffffffffffffff1673ffffffffffffffffffffffffffffffffffffffff16815260200190815260200160002054610e75919061325d565b1115610eb6576040517f08c379a0000000000000000000000000000000000000000000000000000000008152600401610ead90613303565b60405180910390fd5b600c5481610ec49190613323565b341015610ed057600080fd5b610eda8383610b45565b60005b81811015610f1557610eef600961153e565b610f0233610efd6009611554565b611562565b8080610f0d90612d00565b915050610edd565b50505050565b610f2c610f266113ff565b83611580565b610f6b576040517f08c379a0000000000000000000000000000000000000000000000000000000008152600401610f6290612dba565b60405180910390fd5b610f7784848484611aad565b50505050565b610f856114c0565b80600b60006101000a81548160ff02191690831515021790555050565b6060610fad826113b4565b6000600660008481526020019081526020016000208054610fcd90612b10565b80601f0160208091040260200160405190810160405280929190818152602001828054610ff990612b10565b80156110465780601f1061101b57610100808354040283529160200191611046565b820191906000526020600020905b81548152906001019060200180831161102957829003601f168201915b505050505090506000611057611b09565b9050600081510361106c5781925050506110af565b6000825111156110a15780826040516020016110899291906133b9565b604051602081830303815290604052925050506110af565b6110aa84611b9b565b925050505b919050565b600a5481565b6000600b60006101000a81548160ff0219169083151502179055611113576040517f08c379a000000000000000000000000000000000000000000000000000000000815260040161110a9061323d565b60405180910390fd5b600d546001600e60003373ffffffffffffffffffffffffffffffffffffffff1673ffffffffffffffffffffffffffffffffffffffff16815260200190815260200160002054611162919061325d565b11156111a3576040517f08c379a000000000000000000000000000000000000000000000000000000000815260040161119a90613303565b60405180910390fd5b600c543410156111e8576040517f08c379a00000000000000000000000000000000000000000000000000000000081526004016111df90613429565b60405180910390fd5b6111f2600961153e565b611205336112006009611554565b611562565b6112186112126009611554565b82611c03565b50565b6000600560008473ffffffffffffffffffffffffffffffffffffffff1673ffffffffffffffffffffffffffffffffffffffff16815260200190815260200160002060008373ffffffffffffffffffffffffffffffffffffffff1673ffffffffffffffffffffffffffffffffffffffff16815260200190815260200160002060009054906101000a900460ff16905092915050565b600e6020528060005260406000206000915090505481565b6112cf6114c0565b600073ffffffffffffffffffffffffffffffffffffffff168173ffffffffffffffffffffffffffffffffffffffff160361133e576040517f08c379a0000000000000000000000000000000000000000000000000000000008152600401611335906134bb565b60405180910390fd5b6113478161187b565b50565b60007f01ffc9a7000000000000000000000000000000000000000000000000000000007bffffffffffffffffffffffffffffffffffffffffffffffffffffffff1916827bffffffffffffffffffffffffffffffffffffffffffffffffffffffff1916149050919050565b6113bd81611c70565b6113fc576040517f08c379a00000000000000000000000000000000000000000000000000000000081526004016113f39061313f565b60405180910390fd5b50565b600033905090565b816004600083815260200190815260200160002060006101000a81548173ffffffffffffffffffffffffffffffffffffffff021916908373ffffffffffffffffffffffffffffffffffffffff160217905550808273ffffffffffffffffffffffffffffffffffffffff1661147a83610b6e565b73ffffffffffffffffffffffffffffffffffffffff167f8c5be1e5ebec7d5bd14f71427d1e84f3dd0314c0f7b2291e5b200ac8c7c3b92560405160405180910390a45050565b6114c86113ff565b73ffffffffffffffffffffffffffffffffffffffff166114e6610cea565b73ffffffffffffffffffffffffffffffffffffffff161461153c576040517f08c379a000000000000000000000000000000000000000000000000000000000815260040161153390613527565b60405180910390fd5b565b6001816000016000828254019250508190555050565b600081600001549050919050565b61157c828260405180602001604052806000815250611cdc565b5050565b60008061158c83610b6e565b90508073ffffffffffffffffffffffffffffffffffffffff168473ffffffffffffffffffffffffffffffffffffffff1614806115ce57506115cd818561121b565b5b8061160c57508373ffffffffffffffffffffffffffffffffffffffff166115f48461081a565b73ffffffffffffffffffffffffffffffffffffffff16145b91505092915050565b8273ffffffffffffffffffffffffffffffffffffffff1661163582610b6e565b73ffffffffffffffffffffffffffffffffffffffff161461168b576040517f08c379a0000000000000000000000000000000000000000000000000000000008152600401611682906135b9565b60405180910390fd5b600073ffffffffffffffffffffffffffffffffffffffff168273ffffffffffffffffffffffffffffffffffffffff16036116fa576040517f08c379a00000000000000000000000000000000000000000000000000000000081526004016116f19061364b565b60405180910390fd5b611705838383611d37565b611710600082611407565b6001600360008573ffffffffffffffffffffffffffffffffffffffff1673ffffffffffffffffffffffffffffffffffffffff1681526020019081526020016000206000828254611760919061366b565b925050819055506001600360008473ffffffffffffffffffffffffffffffffffffffff1673ffffffffffffffffffffffffffffffffffffffff16815260200190815260200160002060008282546117b7919061325d565b92505081905550816002600083815260200190815260200160002060006101000a81548173ffffffffffffffffffffffffffffffffffffffff021916908373ffffffffffffffffffffffffffffffffffffffff160217905550808273ffffffffffffffffffffffffffffffffffffffff168473ffffffffffffffffffffffffffffffffffffffff167fddf252ad1be2c89b69c2b068fc378daa952ba7f163c4a11628f55a4df523b3ef60405160405180910390a4611876838383611d3c565b505050565b6000600760009054906101000a900473ffffffffffffffffffffffffffffffffffffffff16905081600760006101000a81548173ffffffffffffffffffffffffffffffffffffffff021916908373ffffffffffffffffffffffffffffffffffffffff1602179055508173ffffffffffffffffffffffffffffffffffffffff168173ffffffffffffffffffffffffffffffffffffffff167f8be0079c531659141344cd1fd0a4f28419497f9722a3daafe3b4186f6b6457e060405160405180910390a35050565b8173ffffffffffffffffffffffffffffffffffffffff168373ffffffffffffffffffffffffffffffffffffffff16036119af576040517f08c379a00000000000000000000000000000000000000000000000000000000081526004016119a6906136eb565b60405180910390fd5b80600560008573ffffffffffffffffffffffffffffffffffffffff1673ffffffffffffffffffffffffffffffffffffffff16815260200190815260200160002060008473ffffffffffffffffffffffffffffffffffffffff1673ffffffffffffffffffffffffffffffffffffffff16815260200190815260200160002060006101000a81548160ff0219169083151502179055508173ffffffffffffffffffffffffffffffffffffffff168373ffffffffffffffffffffffffffffffffffffffff167f17307eab39ab6107e8899845ad3d59bd9653f200f220920489ca2b5937696c3183604051611aa091906122d8565b60405180910390a3505050565b611ab8848484611615565b611ac484848484611d41565b611b03576040517f08c379a0000000000000000000000000000000000000000000000000000000008152600401611afa9061377d565b60405180910390fd5b50505050565b6060600f8054611b1890612b10565b80601f0160208091040260200160405190810160405280929190818152602001828054611b4490612b10565b8015611b915780601f10611b6657610100808354040283529160200191611b91565b820191906000526020600020905b815481529060010190602001808311611b7457829003601f168201915b5050505050905090565b6060611ba6826113b4565b6000611bb0611b09565b90506000815111611bd05760405180602001604052806000815250611bfb565b80611bda84611ec8565b604051602001611beb9291906133b9565b6040516020818303038152906040525b915050919050565b611c0c82611c70565b611c4b576040517f08c379a0000000000000000000000000000000000000000000000000000000008152600401611c429061380f565b60405180910390fd5b80600660008481526020019081526020016000209081611c6b919061382f565b505050565b60008073ffffffffffffffffffffffffffffffffffffffff166002600084815260200190815260200160002060009054906101000a900473ffffffffffffffffffffffffffffffffffffffff1673ffffffffffffffffffffffffffffffffffffffff1614159050919050565b611ce68383612028565b611cf36000848484611d41565b611d32576040517f08c379a0000000000000000000000000000000000000000000000000000000008152600401611d299061377d565b60405180910390fd5b505050565b505050565b505050565b6000611d628473ffffffffffffffffffffffffffffffffffffffff16612201565b15611ebb578373ffffffffffffffffffffffffffffffffffffffff1663150b7a02611d8b6113ff565b8786866040518563ffffffff1660e01b8152600401611dad9493929190613956565b6020604051808303816000875af1925050508015611de957506040513d601f19601f82011682018060405250810190611de691906139b7565b60015b611e6b573d8060008114611e19576040519150601f19603f3d011682016040523d82523d6000602084013e611e1e565b606091505b506000815103611e63576040517f08c379a0000000000000000000000000000000000000000000000000000000008152600401611e5a9061377d565b60405180910390fd5b805181602001fd5b63150b7a0260e01b7bffffffffffffffffffffffffffffffffffffffffffffffffffffffff1916817bffffffffffffffffffffffffffffffffffffffffffffffffffffffff191614915050611ec0565b600190505b949350505050565b606060008203611f0f576040518060400160405280600181526020017f30000000000000000000000000000000000000000000000000000000000000008152509050612023565b600082905060005b60008214611f41578080611f2a90612d00565b915050600a82611f3a9190613a13565b9150611f17565b60008167ffffffffffffffff811115611f5d57611f5c6127dc565b5b6040519080825280601f01601f191660200182016040528015611f8f5781602001600182028036833780820191505090505b5090505b6000851461201c57600182611fa8919061366b565b9150600a85611fb79190613a44565b6030611fc3919061325d565b60f81b818381518110611fd957611fd8613a75565b5b60200101907effffffffffffffffffffffffffffffffffffffffffffffffffffffffffffff1916908160001a905350600a856120159190613a13565b9450611f93565b8093505050505b919050565b600073ffffffffffffffffffffffffffffffffffffffff168273ffffffffffffffffffffffffffffffffffffffff1603612097576040517f08c379a000000000000000000000000000000000000000000000000000000000815260040161208e90613af0565b60405180910390fd5b6120a081611c70565b156120e0576040517f08c379a00000000000000000000000000000000000000000000000000000000081526004016120d790613b5c565b60405180910390fd5b6120ec60008383611d37565b6001600360008473ffffffffffffffffffffffffffffffffffffffff1673ffffffffffffffffffffffffffffffffffffffff168152602001908152602001600020600082825461213c919061325d565b92505081905550816002600083815260200190815260200160002060006101000a81548173ffffffffffffffffffffffffffffffffffffffff021916908373ffffffffffffffffffffffffffffffffffffffff160217905550808273ffffffffffffffffffffffffffffffffffffffff16600073ffffffffffffffffffffffffffffffffffffffff167fddf252ad1be2c89b69c2b068fc378daa952ba7f163c4a11628f55a4df523b3ef60405160405180910390a46121fd60008383611d3c565b5050565b6000808273ffffffffffffffffffffffffffffffffffffffff163b119050919050565b6000604051905090565b600080fd5b600080fd5b60007fffffffff0000000000000000000000000000000000000000000000000000000082169050919050565b61226d81612238565b811461227857600080fd5b50565b60008135905061228a81612264565b92915050565b6000602082840312156122a6576122a561222e565b5b60006122b48482850161227b565b91505092915050565b60008115159050919050565b6122d2816122bd565b82525050565b60006020820190506122ed60008301846122c9565b92915050565b600081519050919050565b600082825260208201905092915050565b60005b8381101561232d578082015181840152602081019050612312565b60008484015250505050565b6000601f19601f8301169050919050565b6000612355826122f3565b61235f81856122fe565b935061236f81856020860161230f565b61237881612339565b840191505092915050565b6000602082019050818103600083015261239d818461234a565b905092915050565b6000819050919050565b6123b8816123a5565b81146123c357600080fd5b50565b6000813590506123d5816123af565b92915050565b6000602082840312156123f1576123f061222e565b5b60006123ff848285016123c6565b91505092915050565b600073ffffffffffffffffffffffffffffffffffffffff82169050919050565b600061243382612408565b9050919050565b61244381612428565b82525050565b600060208201905061245e600083018461243a565b92915050565b61246d81612428565b811461247857600080fd5b50565b60008135905061248a81612464565b92915050565b600080604083850312156124a7576124a661222e565b5b60006124b58582860161247b565b92505060206124c6858286016123c6565b9150509250929050565b600080fd5b600080fd5b600080fd5b60008083601f8401126124f5576124f46124d0565b5b8235905067ffffffffffffffff811115612512576125116124d5565b5b60208301915083600182028301111561252e5761252d6124da565b5b9250929050565b6000806000806060858703121561254f5761254e61222e565b5b600061255d8782880161247b565b945050602085013567ffffffffffffffff81111561257e5761257d612233565b5b61258a878288016124df565b9350935050604061259d878288016123c6565b91505092959194509250565b6125b2816123a5565b82525050565b60006020820190506125cd60008301846125a9565b92915050565b6000806000606084860312156125ec576125eb61222e565b5b60006125fa8682870161247b565b935050602061260b8682870161247b565b925050604061261c868287016123c6565b9150509250925092565b600061263182612408565b9050919050565b61264181612626565b811461264c57600080fd5b50565b60008135905061265e81612638565b92915050565b60006020828403121561267a5761267961222e565b5b60006126888482850161264f565b91505092915050565b600080602083850312156126a8576126a761222e565b5b600083013567ffffffffffffffff8111156126c6576126c5612233565b5b6126d2858286016124df565b92509250509250929050565b6000602082840312156126f4576126f361222e565b5b60006127028482850161247b565b91505092915050565b612714816122bd565b811461271f57600080fd5b50565b6000813590506127318161270b565b92915050565b6000806040838503121561274e5761274d61222e565b5b600061275c8582860161247b565b925050602061276d85828601612722565b9150509250929050565b6000806000604084860312156127905761278f61222e565b5b600084013567ffffffffffffffff8111156127ae576127ad612233565b5b6127ba868287016124df565b935093505060206127cd868287016123c6565b9150509250925092565b600080fd5b7f4e487b7100000000000000000000000000000000000000000000000000000000600052604160045260246000fd5b61281482612339565b810181811067ffffffffffffffff82111715612833576128326127dc565b5b80604052505050565b6000612846612224565b9050612852828261280b565b919050565b600067ffffffffffffffff821115612872576128716127dc565b5b61287b82612339565b9050602081019050919050565b82818337600083830152505050565b60006128aa6128a584612857565b61283c565b9050828152602081018484840111156128c6576128c56127d7565b5b6128d1848285612888565b509392505050565b600082601f8301126128ee576128ed6124d0565b5b81356128fe848260208601612897565b91505092915050565b600080600080608085870312156129215761292061222e565b5b600061292f8782880161247b565b94505060206129408782880161247b565b9350506040612951878288016123c6565b925050606085013567ffffffffffffffff81111561297257612971612233565b5b61297e878288016128d9565b91505092959194509250565b6000602082840312156129a05761299f61222e565b5b60006129ae84828501612722565b91505092915050565b600067ffffffffffffffff8211156129d2576129d16127dc565b5b6129db82612339565b9050602081019050919050565b60006129fb6129f6846129b7565b61283c565b905082815260208101848484011115612a1757612a166127d7565b5b612a22848285612888565b509392505050565b600082601f830112612a3f57612a3e6124d0565b5b8135612a4f8482602086016129e8565b91505092915050565b600060208284031215612a6e57612a6d61222e565b5b600082013567ffffffffffffffff811115612a8c57612a8b612233565b5b612a9884828501612a2a565b91505092915050565b60008060408385031215612ab857612ab761222e565b5b6000612ac68582860161247b565b9250506020612ad78582860161247b565b9150509250929050565b7f4e487b7100000000000000000000000000000000000000000000000000000000600052602260045260246000fd5b60006002820490506001821680612b2857607f821691505b602082108103612b3b57612b3a612ae1565b5b50919050565b7f4552433732313a20617070726f76616c20746f2063757272656e74206f776e6560008201527f7200000000000000000000000000000000000000000000000000000000000000602082015250565b6000612b9d6021836122fe565b9150612ba882612b41565b604082019050919050565b60006020820190508181036000830152612bcc81612b90565b9050919050565b7f4552433732313a20617070726f76652063616c6c6572206973206e6f7420746f60008201527f6b656e206f776e6572206e6f7220617070726f76656420666f7220616c6c0000602082015250565b6000612c2f603e836122fe565b9150612c3a82612bd3565b604082019050919050565b60006020820190508181036000830152612c5e81612c22565b9050919050565b7f4d696e74696e67206d7573742062652070617573656400000000000000000000600082015250565b6000612c9b6016836122fe565b9150612ca682612c65565b602082019050919050565b60006020820190508181036000830152612cca81612c8e565b9050919050565b7f4e487b7100000000000000000000000000000000000000000000000000000000600052601160045260246000fd5b6000612d0b826123a5565b91507fffffffffffffffffffffffffffffffffffffffffffffffffffffffffffffffff8203612d3d57612d3c612cd1565b5b600182019050919050565b7f4552433732313a2063616c6c6572206973206e6f7420746f6b656e206f776e6560008201527f72206e6f7220617070726f766564000000000000000000000000000000000000602082015250565b6000612da4602e836122fe565b9150612daf82612d48565b604082019050919050565b60006020820190508181036000830152612dd381612d97565b9050919050565b7f74686520636f6e747261637427732062616c616e636520697320656d7074792c60008201527f207a65726f6f6f6f000000000000000000000000000000000000000000000000602082015250565b6000612e366028836122fe565b9150612e4182612dda565b604082019050919050565b60006020820190508181036000830152612e6581612e29565b9050919050565b600082905092915050565b60008190508160005260206000209050919050565b60006020601f8301049050919050565b600082821b905092915050565b600060088302612ed97fffffffffffffffffffffffffffffffffffffffffffffffffffffffffffffffff82612e9c565b612ee38683612e9c565b95508019841693508086168417925050509392505050565b6000819050919050565b6000612f20612f1b612f16846123a5565b612efb565b6123a5565b9050919050565b6000819050919050565b612f3a83612f05565b612f4e612f4682612f27565b848454612ea9565b825550505050565b600090565b612f63612f56565b612f6e818484612f31565b505050565b5b81811015612f9257612f87600082612f5b565b600181019050612f74565b5050565b601f821115612fd757612fa881612e77565b612fb184612e8c565b81016020851015612fc0578190505b612fd4612fcc85612e8c565b830182612f73565b50505b505050565b600082821c905092915050565b6000612ffa60001984600802612fdc565b1980831691505092915050565b60006130138383612fe9565b9150826002028217905092915050565b61302d8383612e6c565b67ffffffffffffffff811115613046576130456127dc565b5b6130508254612b10565b61305b828285612f96565b6000601f83116001811461308a5760008415613078578287013590505b6130828582613007565b8655506130ea565b601f19841661309886612e77565b60005b828110156130c05784890135825560018201915060208501945060208101905061309b565b868310156130dd57848901356130d9601f891682612fe9565b8355505b6001600288020188555050505b50505050505050565b7f4552433732313a20696e76616c696420746f6b656e2049440000000000000000600082015250565b60006131296018836122fe565b9150613134826130f3565b602082019050919050565b600060208201905081810360008301526131588161311c565b9050919050565b7f4552433732313a2061646472657373207a65726f206973206e6f74206120766160008201527f6c6964206f776e65720000000000000000000000000000000000000000000000602082015250565b60006131bb6029836122fe565b91506131c68261315f565b604082019050919050565b600060208201905081810360008301526131ea816131ae565b9050919050565b7f4d696e74696e672069732063757272656e746c79207061757365640000000000600082015250565b6000613227601b836122fe565b9150613232826131f1565b602082019050919050565b600060208201905081810360008301526132568161321a565b9050919050565b6000613268826123a5565b9150613273836123a5565b925082820190508082111561328b5761328a612cd1565b5b92915050565b7f596f75206861766520657863656564656420746865206d6178206d696e74732060008201527f7065722077616c6c657400000000000000000000000000000000000000000000602082015250565b60006132ed602a836122fe565b91506132f882613291565b604082019050919050565b6000602082019050818103600083015261331c816132e0565b9050919050565b600061332e826123a5565b9150613339836123a5565b9250817fffffffffffffffffffffffffffffffffffffffffffffffffffffffffffffffff048311821515161561337257613371612cd1565b5b828202905092915050565b600081905092915050565b6000613393826122f3565b61339d818561337d565b93506133ad81856020860161230f565b80840191505092915050565b60006133c58285613388565b91506133d18284613388565b91508190509392505050565b7f4e6f7420656e6f756768206574686572732073656e7400000000000000000000600082015250565b60006134136016836122fe565b915061341e826133dd565b602082019050919050565b6000602082019050818103600083015261344281613406565b9050919050565b7f4f776e61626c653a206e6577206f776e657220697320746865207a65726f206160008201527f6464726573730000000000000000000000000000000000000000000000000000602082015250565b60006134a56026836122fe565b91506134b082613449565b604082019050919050565b600060208201905081810360008301526134d481613498565b9050919050565b7f4f776e61626c653a2063616c6c6572206973206e6f7420746865206f776e6572600082015250565b60006135116020836122fe565b915061351c826134db565b602082019050919050565b6000602082019050818103600083015261354081613504565b9050919050565b7f4552433732313a207472616e736665722066726f6d20696e636f72726563742060008201527f6f776e6572000000000000000000000000000000000000000000000000000000602082015250565b60006135a36025836122fe565b91506135ae82613547565b604082019050919050565b600060208201905081810360008301526135d281613596565b9050919050565b7f4552433732313a207472616e7366657220746f20746865207a65726f2061646460008201527f7265737300000000000000000000000000000000000000000000000000000000602082015250565b60006136356024836122fe565b9150613640826135d9565b604082019050919050565b6000602082019050818103600083015261366481613628565b9050919050565b6000613676826123a5565b9150613681836123a5565b925082820390508181111561369957613698612cd1565b5b92915050565b7f4552433732313a20617070726f766520746f2063616c6c657200000000000000600082015250565b60006136d56019836122fe565b91506136e08261369f565b602082019050919050565b60006020820190508181036000830152613704816136c8565b9050919050565b7f4552433732313a207472616e7366657220746f206e6f6e20455243373231526560008201527f63656976657220696d706c656d656e7465720000000000000000000000000000602082015250565b60006137676032836122fe565b91506137728261370b565b604082019050919050565b600060208201905081810360008301526137968161375a565b9050919050565b7f45524337323155524953746f726167653a2055524920736574206f66206e6f6e60008201527f6578697374656e7420746f6b656e000000000000000000000000000000000000602082015250565b60006137f9602e836122fe565b91506138048261379d565b604082019050919050565b60006020820190508181036000830152613828816137ec565b9050919050565b613838826122f3565b67ffffffffffffffff811115613851576138506127dc565b5b61385b8254612b10565b613866828285612f96565b600060209050601f8311600181146138995760008415613887578287015190505b6138918582613007565b8655506138f9565b601f1984166138a786612e77565b60005b828110156138cf578489015182556001820191506020850194506020810190506138aa565b868310156138ec57848901516138e8601f891682612fe9565b8355505b6001600288020188555050505b505050505050565b600081519050919050565b600082825260208201905092915050565b600061392882613901565b613932818561390c565b935061394281856020860161230f565b61394b81612339565b840191505092915050565b600060808201905061396b600083018761243a565b613978602083018661243a565b61398560408301856125a9565b8181036060830152613997818461391d565b905095945050505050565b6000815190506139b181612264565b92915050565b6000602082840312156139cd576139cc61222e565b5b60006139db848285016139a2565b91505092915050565b7f4e487b7100000000000000000000000000000000000000000000000000000000600052601260045260246000fd5b6000613a1e826123a5565b9150613a29836123a5565b925082613a3957613a386139e4565b5b828204905092915050565b6000613a4f826123a5565b9150613a5a836123a5565b925082613a6a57613a696139e4565b5b828206905092915050565b7f4e487b7100000000000000000000000000000000000000000000000000000000600052603260045260246000fd5b7f4552433732313a206d696e7420746f20746865207a65726f2061646472657373600082015250565b6000613ada6020836122fe565b9150613ae582613aa4565b602082019050919050565b60006020820190508181036000830152613b0981613acd565b9050919050565b7f4552433732313a20746f6b656e20616c7265616479206d696e74656400000000600082015250565b6000613b46601c836122fe565b9150613b5182613b10565b602082019050919050565b60006020820190508181036000830152613b7581613b39565b905091905056fea2646970667358221220a2cfa819a6fc1d5cd8356797d3d5f50b11571cb9d016bc703b857a2b99ff222a64736f6c63430008100033",
  "immutableReferences": {},
  "source": "// SPDX-License-Identifier: MIT\npragma solidity ^0.8.0;\n\nimport \"@openzeppelin/contracts/token/ERC721/extensions/ERC721URIStorage.sol\";\nimport \"@openzeppelin/contracts/security/ReentrancyGuard.sol\";\nimport \"@openzeppelin/contracts/access/Ownable.sol\";\nimport \"@openzeppelin/contracts/utils/Counters.sol\";\n\ncontract Big3NFT is ERC721URIStorage, Ownable, ReentrancyGuard {\n  using Counters for Counters.Counter;\n  \n  Counters.Counter private _tokenIdCounter;\n  uint256 public maxSupply;\n  bool public paused;\n  uint256 public _price;\n  uint256 public maxPerWallet;\n  mapping(address => uint256) public walletMints;\n  string private _baseTokenURI;\n\n\n  constructor() ERC721(\"Big3NFT\", \"B3N\"){\n    maxSupply = 10000;\n    _price = 0.01 ether;\n    paused = true;\n    maxPerWallet = 20;\n  }\n\n  function _baseURI() internal view virtual override returns (string memory) {\n        return _baseTokenURI;\n    }\n\n    function setBaseURI(string calldata baseURI) public{\n      _baseTokenURI = baseURI;\n    }\n  \n  // Mint for dev\n  function devMint(address _to, string calldata _tokensBaseURI, uint256 _qty) external onlyOwner{\n    require(paused = true, \"Minting must be paused\");\n\n    setBaseURI(_tokensBaseURI);\n    for(uint256 i = 0; i < _qty; i++){\n      _tokenIdCounter.increment();\n      _safeMint(_to, _tokenIdCounter.current());\n    }\n  }\n\n  // Set Mint Price\n  function setPrice(uint newPrice) external onlyOwner{\n    _price = newPrice;\n  }\n\n  //set pause\n  function setPause(bool _pause) external onlyOwner{\n    paused = _pause;\n  }\n\n  //Mint multiple\n  function mint(string memory _tokenURI) public payable {\n    require(paused = false, \"Minting is currently paused\");\n    require(walletMints[msg.sender] + 1 <= maxPerWallet, \"You have exceeded the max mints per wallet\");\n    require(msg.value >= _price, \"Not enough ethers sent\");\n\n     _tokenIdCounter.increment();\n    _safeMint(msg.sender, _tokenIdCounter.current());\n    _setTokenURI(_tokenIdCounter.current(), _tokenURI);\n  }\n\n  function mintMultiple(string calldata _tokensBaseURI, uint256 _qty) public payable {\n    require(paused = false, \"Minting is currently paused\");\n    require(walletMints[msg.sender] + _qty <= maxPerWallet, \"You have exceeded the max mints per wallet\");\n    require(msg.value >= _qty * _price);\n\n    setBaseURI(_tokensBaseURI);\n    for(uint256 i = 0; i < _qty; i++){\n      _tokenIdCounter.increment();\n      _safeMint(msg.sender, _tokenIdCounter.current());\n    }\n  }\n\n  function withdraw(address payable _to) public onlyOwner{\n    require(address(this).balance > 0, \"the contract's balance is empty, zeroooo\");\n    _to.transfer(address(this).balance);\n  }\n}\n",
  "sourcePath": "C:/Users/LENOVO/Desktop/dev-isonu/big3Minting/contracts/Big3Minting.sol",
  "compiler": {
    "name": "solc",
    "version": "0.8.16+commit.07a7930e.Emscripten.clang"
  },
  "schemaVersion": "3.4.1",
  "updatedAt": "2022-08-19T17:16:25.195Z",
  "networkType": "ethereum",
  "devdoc": {
    "kind": "dev",
    "methods": {
      "approve(address,uint256)": {
        "details": "See {IERC721-approve}."
      },
      "balanceOf(address)": {
        "details": "See {IERC721-balanceOf}."
      },
      "getApproved(uint256)": {
        "details": "See {IERC721-getApproved}."
      },
      "isApprovedForAll(address,address)": {
        "details": "See {IERC721-isApprovedForAll}."
      },
      "name()": {
        "details": "See {IERC721Metadata-name}."
      },
      "owner()": {
        "details": "Returns the address of the current owner."
      },
      "ownerOf(uint256)": {
        "details": "See {IERC721-ownerOf}."
      },
      "renounceOwnership()": {
        "details": "Leaves the contract without owner. It will not be possible to call `onlyOwner` functions anymore. Can only be called by the current owner. NOTE: Renouncing ownership will leave the contract without an owner, thereby removing any functionality that is only available to the owner."
      },
      "safeTransferFrom(address,address,uint256)": {
        "details": "See {IERC721-safeTransferFrom}."
      },
      "safeTransferFrom(address,address,uint256,bytes)": {
        "details": "See {IERC721-safeTransferFrom}."
      },
      "setApprovalForAll(address,bool)": {
        "details": "See {IERC721-setApprovalForAll}."
      },
      "supportsInterface(bytes4)": {
        "details": "See {IERC165-supportsInterface}."
      },
      "symbol()": {
        "details": "See {IERC721Metadata-symbol}."
      },
      "tokenURI(uint256)": {
        "details": "See {IERC721Metadata-tokenURI}."
      },
      "transferFrom(address,address,uint256)": {
        "details": "See {IERC721-transferFrom}."
      },
      "transferOwnership(address)": {
        "details": "Transfers ownership of the contract to a new account (`newOwner`). Can only be called by the current owner."
      }
    },
    "version": 1
  },
  "userdoc": {
    "kind": "user",
    "methods": {},
    "version": 1
  }
}