{
  "contractName": "Big3NFT",
  "abi": [
    {
      "inputs": [],
      "stateMutability": "nonpayable",
      "type": "constructor"
    },
    {
      "anonymous": false,
      "inputs": [
        {
          "indexed": true,
          "internalType": "address",
          "name": "owner",
          "type": "address"
        },
        {
          "indexed": true,
          "internalType": "address",
          "name": "approved",
          "type": "address"
        },
        {
          "indexed": true,
          "internalType": "uint256",
          "name": "tokenId",
          "type": "uint256"
        }
      ],
      "name": "Approval",
      "type": "event"
    },
    {
      "anonymous": false,
      "inputs": [
        {
          "indexed": true,
          "internalType": "address",
          "name": "owner",
          "type": "address"
        },
        {
          "indexed": true,
          "internalType": "address",
          "name": "operator",
          "type": "address"
        },
        {
          "indexed": false,
          "internalType": "bool",
          "name": "approved",
          "type": "bool"
        }
      ],
      "name": "ApprovalForAll",
      "type": "event"
    },
    {
      "anonymous": false,
      "inputs": [
        {
          "indexed": true,
          "internalType": "address",
          "name": "previousOwner",
          "type": "address"
        },
        {
          "indexed": true,
          "internalType": "address",
          "name": "newOwner",
          "type": "address"
        }
      ],
      "name": "OwnershipTransferred",
      "type": "event"
    },
    {
      "anonymous": false,
      "inputs": [
        {
          "indexed": true,
          "internalType": "address",
          "name": "from",
          "type": "address"
        },
        {
          "indexed": true,
          "internalType": "address",
          "name": "to",
          "type": "address"
        },
        {
          "indexed": true,
          "internalType": "uint256",
          "name": "tokenId",
          "type": "uint256"
        }
      ],
      "name": "Transfer",
      "type": "event"
    },
    {
      "inputs": [],
      "name": "_price",
      "outputs": [
        {
          "internalType": "uint256",
          "name": "",
          "type": "uint256"
        }
      ],
      "stateMutability": "view",
      "type": "function",
      "constant": true
    },
    {
      "inputs": [
        {
          "internalType": "address",
          "name": "to",
          "type": "address"
        },
        {
          "internalType": "uint256",
          "name": "tokenId",
          "type": "uint256"
        }
      ],
      "name": "approve",
      "outputs": [],
      "stateMutability": "nonpayable",
      "type": "function"
    },
    {
      "inputs": [
        {
          "internalType": "address",
          "name": "owner",
          "type": "address"
        }
      ],
      "name": "balanceOf",
      "outputs": [
        {
          "internalType": "uint256",
          "name": "",
          "type": "uint256"
        }
      ],
      "stateMutability": "view",
      "type": "function",
      "constant": true
    },
    {
      "inputs": [
        {
          "internalType": "uint256",
          "name": "tokenId",
          "type": "uint256"
        }
      ],
      "name": "getApproved",
      "outputs": [
        {
          "internalType": "address",
          "name": "",
          "type": "address"
        }
      ],
      "stateMutability": "view",
      "type": "function",
      "constant": true
    },
    {
      "inputs": [
        {
          "internalType": "address",
          "name": "owner",
          "type": "address"
        },
        {
          "internalType": "address",
          "name": "operator",
          "type": "address"
        }
      ],
      "name": "isApprovedForAll",
      "outputs": [
        {
          "internalType": "bool",
          "name": "",
          "type": "bool"
        }
      ],
      "stateMutability": "view",
      "type": "function",
      "constant": true
    },
    {
      "inputs": [],
      "name": "maxPerWallet",
      "outputs": [
        {
          "internalType": "uint256",
          "name": "",
          "type": "uint256"
        }
      ],
      "stateMutability": "view",
      "type": "function",
      "constant": true
    },
    {
      "inputs": [],
      "name": "maxSupply",
      "outputs": [
        {
          "internalType": "uint256",
          "name": "",
          "type": "uint256"
        }
      ],
      "stateMutability": "view",
      "type": "function",
      "constant": true
    },
    {
      "inputs": [],
      "name": "name",
      "outputs": [
        {
          "internalType": "string",
          "name": "",
          "type": "string"
        }
      ],
      "stateMutability": "view",
      "type": "function",
      "constant": true
    },
    {
      "inputs": [],
      "name": "owner",
      "outputs": [
        {
          "internalType": "address",
          "name": "",
          "type": "address"
        }
      ],
      "stateMutability": "view",
      "type": "function",
      "constant": true
    },
    {
      "inputs": [
        {
          "internalType": "uint256",
          "name": "tokenId",
          "type": "uint256"
        }
      ],
      "name": "ownerOf",
      "outputs": [
        {
          "internalType": "address",
          "name": "",
          "type": "address"
        }
      ],
      "stateMutability": "view",
      "type": "function",
      "constant": true
    },
    {
      "inputs": [],
      "name": "paused",
      "outputs": [
        {
          "internalType": "bool",
          "name": "",
          "type": "bool"
        }
      ],
      "stateMutability": "view",
      "type": "function",
      "constant": true
    },
    {
      "inputs": [],
      "name": "renounceOwnership",
      "outputs": [],
      "stateMutability": "nonpayable",
      "type": "function"
    },
    {
      "inputs": [
        {
          "internalType": "address",
          "name": "from",
          "type": "address"
        },
        {
          "internalType": "address",
          "name": "to",
          "type": "address"
        },
        {
          "internalType": "uint256",
          "name": "tokenId",
          "type": "uint256"
        }
      ],
      "name": "safeTransferFrom",
      "outputs": [],
      "stateMutability": "nonpayable",
      "type": "function"
    },
    {
      "inputs": [
        {
          "internalType": "address",
          "name": "from",
          "type": "address"
        },
        {
          "internalType": "address",
          "name": "to",
          "type": "address"
        },
        {
          "internalType": "uint256",
          "name": "tokenId",
          "type": "uint256"
        },
        {
          "internalType": "bytes",
          "name": "data",
          "type": "bytes"
        }
      ],
      "name": "safeTransferFrom",
      "outputs": [],
      "stateMutability": "nonpayable",
      "type": "function"
    },
    {
      "inputs": [
        {
          "internalType": "address",
          "name": "operator",
          "type": "address"
        },
        {
          "internalType": "bool",
          "name": "approved",
          "type": "bool"
        }
      ],
      "name": "setApprovalForAll",
      "outputs": [],
      "stateMutability": "nonpayable",
      "type": "function"
    },
    {
      "inputs": [
        {
          "internalType": "bytes4",
          "name": "interfaceId",
          "type": "bytes4"
        }
      ],
      "name": "supportsInterface",
      "outputs": [
        {
          "internalType": "bool",
          "name": "",
          "type": "bool"
        }
      ],
      "stateMutability": "view",
      "type": "function",
      "constant": true
    },
    {
      "inputs": [],
      "name": "symbol",
      "outputs": [
        {
          "internalType": "string",
          "name": "",
          "type": "string"
        }
      ],
      "stateMutability": "view",
      "type": "function",
      "constant": true
    },
    {
      "inputs": [
        {
          "internalType": "uint256",
          "name": "tokenId",
          "type": "uint256"
        }
      ],
      "name": "tokenURI",
      "outputs": [
        {
          "internalType": "string",
          "name": "",
          "type": "string"
        }
      ],
      "stateMutability": "view",
      "type": "function",
      "constant": true
    },
    {
      "inputs": [],
      "name": "totalSupply",
      "outputs": [
        {
          "internalType": "uint256",
          "name": "",
          "type": "uint256"
        }
      ],
      "stateMutability": "view",
      "type": "function",
      "constant": true
    },
    {
      "inputs": [
        {
          "internalType": "address",
          "name": "from",
          "type": "address"
        },
        {
          "internalType": "address",
          "name": "to",
          "type": "address"
        },
        {
          "internalType": "uint256",
          "name": "tokenId",
          "type": "uint256"
        }
      ],
      "name": "transferFrom",
      "outputs": [],
      "stateMutability": "nonpayable",
      "type": "function"
    },
    {
      "inputs": [
        {
          "internalType": "address",
          "name": "newOwner",
          "type": "address"
        }
      ],
      "name": "transferOwnership",
      "outputs": [],
      "stateMutability": "nonpayable",
      "type": "function"
    },
    {
      "inputs": [
        {
          "internalType": "address",
          "name": "",
          "type": "address"
        }
      ],
      "name": "walletMints",
      "outputs": [
        {
          "internalType": "uint256",
          "name": "",
          "type": "uint256"
        }
      ],
      "stateMutability": "view",
      "type": "function",
      "constant": true
    },
    {
      "inputs": [
        {
          "internalType": "string",
          "name": "baseURI",
          "type": "string"
        }
      ],
      "name": "setBaseURI",
      "outputs": [],
      "stateMutability": "nonpayable",
      "type": "function"
    },
    {
      "inputs": [
        {
          "internalType": "address",
          "name": "_to",
          "type": "address"
        },
        {
          "internalType": "string",
          "name": "_tokensBaseURI",
          "type": "string"
        },
        {
          "internalType": "uint256",
          "name": "_qty",
          "type": "uint256"
        }
      ],
      "name": "devMint",
      "outputs": [],
      "stateMutability": "nonpayable",
      "type": "function"
    },
    {
      "inputs": [
        {
          "internalType": "uint256",
          "name": "newPrice",
          "type": "uint256"
        }
      ],
      "name": "setPrice",
      "outputs": [],
      "stateMutability": "nonpayable",
      "type": "function"
    },
    {
      "inputs": [
        {
          "internalType": "bool",
          "name": "_pause",
          "type": "bool"
        }
      ],
      "name": "setPause",
      "outputs": [],
      "stateMutability": "nonpayable",
      "type": "function"
    },
    {
      "inputs": [
        {
          "internalType": "string",
          "name": "_tokensBaseURI",
          "type": "string"
        },
        {
          "internalType": "uint256",
          "name": "_qty",
          "type": "uint256"
        }
      ],
      "name": "mint",
      "outputs": [],
      "stateMutability": "payable",
      "type": "function",
      "payable": true
    },
    {
      "inputs": [
        {
          "internalType": "address payable",
          "name": "_to",
          "type": "address"
        }
      ],
      "name": "withdraw",
      "outputs": [],
      "stateMutability": "nonpayable",
      "type": "function"
    }
  ],
  "bytecode": "0x60806040523480156200001157600080fd5b506040518060400160405280600781526020017f426967334e4654000000000000000000000000000000000000000000000000008152506040518060400160405280600381526020017f42334e000000000000000000000000000000000000000000000000000000000081525081600090816200008f91906200045c565b508060019081620000a191906200045c565b505050620000c4620000b86200011460201b60201c565b6200011c60201b60201c565b6001600881905550612710600981905550662386f26fc10000600c819055506001600b60006101000a81548160ff0219169083151502179055506014600d819055506000600a8190555062000543565b600033905090565b6000600760009054906101000a900473ffffffffffffffffffffffffffffffffffffffff16905081600760006101000a81548173ffffffffffffffffffffffffffffffffffffffff021916908373ffffffffffffffffffffffffffffffffffffffff1602179055508173ffffffffffffffffffffffffffffffffffffffff168173ffffffffffffffffffffffffffffffffffffffff167f8be0079c531659141344cd1fd0a4f28419497f9722a3daafe3b4186f6b6457e060405160405180910390a35050565b600081519050919050565b7f4e487b7100000000000000000000000000000000000000000000000000000000600052604160045260246000fd5b7f4e487b7100000000000000000000000000000000000000000000000000000000600052602260045260246000fd5b600060028204905060018216806200026457607f821691505b6020821081036200027a57620002796200021c565b5b50919050565b60008190508160005260206000209050919050565b60006020601f8301049050919050565b600082821b905092915050565b600060088302620002e47fffffffffffffffffffffffffffffffffffffffffffffffffffffffffffffffff82620002a5565b620002f08683620002a5565b95508019841693508086168417925050509392505050565b6000819050919050565b6000819050919050565b60006200033d62000337620003318462000308565b62000312565b62000308565b9050919050565b6000819050919050565b62000359836200031c565b62000371620003688262000344565b848454620002b2565b825550505050565b600090565b6200038862000379565b620003958184846200034e565b505050565b5b81811015620003bd57620003b16000826200037e565b6001810190506200039b565b5050565b601f8211156200040c57620003d68162000280565b620003e18462000295565b81016020851015620003f1578190505b62000409620004008562000295565b8301826200039a565b50505b505050565b600082821c905092915050565b6000620004316000198460080262000411565b1980831691505092915050565b60006200044c83836200041e565b9150826002028217905092915050565b6200046782620001e2565b67ffffffffffffffff811115620004835762000482620001ed565b5b6200048f82546200024b565b6200049c828285620003c1565b600060209050601f831160018114620004d45760008415620004bf578287015190505b620004cb85826200043e565b8655506200053b565b601f198416620004e48662000280565b60005b828110156200050e57848901518255600182019150602085019450602081019050620004e7565b868310156200052e57848901516200052a601f8916826200041e565b8355505b6001600288020188555050505b505050505050565b61385780620005536000396000f3fe6080604052600436106101b75760003560e01c80636352211e116100ec578063b88d4fde1161008a578063d5abeb0111610064578063d5abeb01146105e7578063e985e9c514610612578063f0293fd31461064f578063f2fde38b1461068c576101b7565b8063b88d4fde14610558578063bedb86fb14610581578063c87b56dd146105aa576101b7565b80638da5cb5b116100c65780638da5cb5b146104b057806391b7f5ed146104db57806395d89b4114610504578063a22cb4651461052f576101b7565b80636352211e1461041f57806370a082311461045c578063715018a614610499576101b7565b8063235b6ea111610159578063453c231011610133578063453c23101461037757806351cff8d9146103a257806355f804b3146103cb5780635c975abb146103f4576101b7565b8063235b6ea1146102fa57806323b872dd1461032557806342842e0e1461034e576101b7565b8063081812fc11610195578063081812fc14610240578063095ea7b31461027d57806309ebd966146102a657806318160ddd146102cf576101b7565b806301ffc9a7146101bc578063056b01ce146101f957806306fdde0314610215575b600080fd5b3480156101c857600080fd5b506101e360048036038101906101de9190612183565b6106b5565b6040516101f091906121cb565b60405180910390f35b610213600480360381019061020e9190612281565b610797565b005b34801561022157600080fd5b5061022a61094c565b6040516102379190612371565b60405180910390f35b34801561024c57600080fd5b5061026760048036038101906102629190612393565b6109de565b6040516102749190612401565b60405180910390f35b34801561028957600080fd5b506102a4600480360381019061029f9190612448565b610a24565b005b3480156102b257600080fd5b506102cd60048036038101906102c89190612488565b610b3b565b005b3480156102db57600080fd5b506102e4610c50565b6040516102f1919061250b565b60405180910390f35b34801561030657600080fd5b5061030f610c56565b60405161031c919061250b565b60405180910390f35b34801561033157600080fd5b5061034c60048036038101906103479190612526565b610c5c565b005b34801561035a57600080fd5b5061037560048036038101906103709190612526565b610cbc565b005b34801561038357600080fd5b5061038c610cdc565b604051610399919061250b565b60405180910390f35b3480156103ae57600080fd5b506103c960048036038101906103c491906125b7565b610ce2565b005b3480156103d757600080fd5b506103f260048036038101906103ed91906125e4565b610d77565b005b34801561040057600080fd5b50610409610d8d565b60405161041691906121cb565b60405180910390f35b34801561042b57600080fd5b5061044660048036038101906104419190612393565b610da0565b6040516104539190612401565b60405180910390f35b34801561046857600080fd5b50610483600480360381019061047e9190612631565b610e51565b604051610490919061250b565b60405180910390f35b3480156104a557600080fd5b506104ae610f08565b005b3480156104bc57600080fd5b506104c5610f1c565b6040516104d29190612401565b60405180910390f35b3480156104e757600080fd5b5061050260048036038101906104fd9190612393565b610f46565b005b34801561051057600080fd5b50610519610f58565b6040516105269190612371565b60405180910390f35b34801561053b57600080fd5b506105566004803603810190610551919061268a565b610fea565b005b34801561056457600080fd5b5061057f600480360381019061057a91906127fa565b611000565b005b34801561058d57600080fd5b506105a860048036038101906105a3919061287d565b611062565b005b3480156105b657600080fd5b506105d160048036038101906105cc9190612393565b611087565b6040516105de9190612371565b60405180910390f35b3480156105f357600080fd5b506105fc611199565b604051610609919061250b565b60405180910390f35b34801561061e57600080fd5b50610639600480360381019061063491906128aa565b61119f565b60405161064691906121cb565b60405180910390f35b34801561065b57600080fd5b5061067660048036038101906106719190612631565b611233565b604051610683919061250b565b60405180910390f35b34801561069857600080fd5b506106b360048036038101906106ae9190612631565b61124b565b005b60007f80ac58cd000000000000000000000000000000000000000000000000000000007bffffffffffffffffffffffffffffffffffffffffffffffffffffffff1916827bffffffffffffffffffffffffffffffffffffffffffffffffffffffff1916148061078057507f5b5e139f000000000000000000000000000000000000000000000000000000007bffffffffffffffffffffffffffffffffffffffffffffffffffffffff1916827bffffffffffffffffffffffffffffffffffffffffffffffffffffffff1916145b80610790575061078f826112ce565b5b9050919050565b60001515600b60009054906101000a900460ff161515146107ed576040517f08c379a00000000000000000000000000000000000000000000000000000000081526004016107e490612936565b60405180910390fd5b600d5481600e60003373ffffffffffffffffffffffffffffffffffffffff1673ffffffffffffffffffffffffffffffffffffffff1681526020019081526020016000205461083b9190612985565b111561087c576040517f08c379a000000000000000000000000000000000000000000000000000000000815260040161087390612a2b565b60405180910390fd5b60095481600a5461088d9190612985565b11156108ce576040517f08c379a00000000000000000000000000000000000000000000000000000000081526004016108c590612a97565b60405180910390fd5b600c54816108dc9190612ab7565b3410156108e857600080fd5b6108f28383610d77565b60005b818110156109465760006001600a5461090e9190612985565b905061091a3382611338565b600a600081548092919061092d90612b11565b919050555050808061093e90612b11565b9150506108f5565b50505050565b60606000805461095b90612b88565b80601f016020809104026020016040519081016040528092919081815260200182805461098790612b88565b80156109d45780601f106109a9576101008083540402835291602001916109d4565b820191906000526020600020905b8154815290600101906020018083116109b757829003601f168201915b5050505050905090565b60006109e982611356565b6004600083815260200190815260200160002060009054906101000a900473ffffffffffffffffffffffffffffffffffffffff169050919050565b6000610a2f82610da0565b90508073ffffffffffffffffffffffffffffffffffffffff168373ffffffffffffffffffffffffffffffffffffffff1603610a9f576040517f08c379a0000000000000000000000000000000000000000000000000000000008152600401610a9690612c2b565b60405180910390fd5b8073ffffffffffffffffffffffffffffffffffffffff16610abe6113a1565b73ffffffffffffffffffffffffffffffffffffffff161480610aed5750610aec81610ae76113a1565b61119f565b5b610b2c576040517f08c379a0000000000000000000000000000000000000000000000000000000008152600401610b2390612cbd565b60405180910390fd5b610b3683836113a9565b505050565b610b43611462565b60011515600b60009054906101000a900460ff16151514610b99576040517f08c379a0000000000000000000000000000000000000000000000000000000008152600401610b9090612d29565b60405180910390fd5b60095481600a54610baa9190612985565b1115610beb576040517f08c379a0000000000000000000000000000000000000000000000000000000008152600401610be290612a97565b60405180910390fd5b610bf58383610d77565b60005b81811015610c495760006001600a54610c119190612985565b9050610c1d8682611338565b600a6000815480929190610c3090612b11565b9190505550508080610c4190612b11565b915050610bf8565b5050505050565b600a5481565b600c5481565b610c6d610c676113a1565b826114e0565b610cac576040517f08c379a0000000000000000000000000000000000000000000000000000000008152600401610ca390612dbb565b60405180910390fd5b610cb7838383611575565b505050565b610cd783838360405180602001604052806000815250611000565b505050565b600d5481565b610cea611462565b60004711610d2d576040517f08c379a0000000000000000000000000000000000000000000000000000000008152600401610d2490612e4d565b60405180910390fd5b8073ffffffffffffffffffffffffffffffffffffffff166108fc479081150290604051600060405180830381858888f19350505050158015610d73573d6000803e3d6000fd5b5050565b8181600f9182610d88929190613024565b505050565b600b60009054906101000a900460ff1681565b6000806002600084815260200190815260200160002060009054906101000a900473ffffffffffffffffffffffffffffffffffffffff169050600073ffffffffffffffffffffffffffffffffffffffff168173ffffffffffffffffffffffffffffffffffffffff1603610e48576040517f08c379a0000000000000000000000000000000000000000000000000000000008152600401610e3f90613140565b60405180910390fd5b80915050919050565b60008073ffffffffffffffffffffffffffffffffffffffff168273ffffffffffffffffffffffffffffffffffffffff1603610ec1576040517f08c379a0000000000000000000000000000000000000000000000000000000008152600401610eb8906131d2565b60405180910390fd5b600360008373ffffffffffffffffffffffffffffffffffffffff1673ffffffffffffffffffffffffffffffffffffffff168152602001908152602001600020549050919050565b610f10611462565b610f1a60006117db565b565b6000600760009054906101000a900473ffffffffffffffffffffffffffffffffffffffff16905090565b610f4e611462565b80600c8190555050565b606060018054610f6790612b88565b80601f0160208091040260200160405190810160405280929190818152602001828054610f9390612b88565b8015610fe05780601f10610fb557610100808354040283529160200191610fe0565b820191906000526020600020905b815481529060010190602001808311610fc357829003601f168201915b5050505050905090565b610ffc610ff56113a1565b83836118a1565b5050565b61101161100b6113a1565b836114e0565b611050576040517f08c379a000000000000000000000000000000000000000000000000000000000815260040161104790612dbb565b60405180910390fd5b61105c84848484611a0d565b50505050565b61106a611462565b80600b60006101000a81548160ff02191690831515021790555050565b606061109282611356565b60006006600084815260200190815260200160002080546110b290612b88565b80601f01602080910402602001604051908101604052809291908181526020018280546110de90612b88565b801561112b5780601f106111005761010080835404028352916020019161112b565b820191906000526020600020905b81548152906001019060200180831161110e57829003601f168201915b50505050509050600061113c611a69565b90506000815103611151578192505050611194565b60008251111561118657808260405160200161116e92919061322e565b60405160208183030381529060405292505050611194565b61118f84611afb565b925050505b919050565b60095481565b6000600560008473ffffffffffffffffffffffffffffffffffffffff1673ffffffffffffffffffffffffffffffffffffffff16815260200190815260200160002060008373ffffffffffffffffffffffffffffffffffffffff1673ffffffffffffffffffffffffffffffffffffffff16815260200190815260200160002060009054906101000a900460ff16905092915050565b600e6020528060005260406000206000915090505481565b611253611462565b600073ffffffffffffffffffffffffffffffffffffffff168173ffffffffffffffffffffffffffffffffffffffff16036112c2576040517f08c379a00000000000000000000000000000000000000000000000000000000081526004016112b9906132c4565b60405180910390fd5b6112cb816117db565b50565b60007f01ffc9a7000000000000000000000000000000000000000000000000000000007bffffffffffffffffffffffffffffffffffffffffffffffffffffffff1916827bffffffffffffffffffffffffffffffffffffffffffffffffffffffff1916149050919050565b611352828260405180602001604052806000815250611b63565b5050565b61135f81611bbe565b61139e576040517f08c379a000000000000000000000000000000000000000000000000000000000815260040161139590613140565b60405180910390fd5b50565b600033905090565b816004600083815260200190815260200160002060006101000a81548173ffffffffffffffffffffffffffffffffffffffff021916908373ffffffffffffffffffffffffffffffffffffffff160217905550808273ffffffffffffffffffffffffffffffffffffffff1661141c83610da0565b73ffffffffffffffffffffffffffffffffffffffff167f8c5be1e5ebec7d5bd14f71427d1e84f3dd0314c0f7b2291e5b200ac8c7c3b92560405160405180910390a45050565b61146a6113a1565b73ffffffffffffffffffffffffffffffffffffffff16611488610f1c565b73ffffffffffffffffffffffffffffffffffffffff16146114de576040517f08c379a00000000000000000000000000000000000000000000000000000000081526004016114d590613330565b60405180910390fd5b565b6000806114ec83610da0565b90508073ffffffffffffffffffffffffffffffffffffffff168473ffffffffffffffffffffffffffffffffffffffff16148061152e575061152d818561119f565b5b8061156c57508373ffffffffffffffffffffffffffffffffffffffff16611554846109de565b73ffffffffffffffffffffffffffffffffffffffff16145b91505092915050565b8273ffffffffffffffffffffffffffffffffffffffff1661159582610da0565b73ffffffffffffffffffffffffffffffffffffffff16146115eb576040517f08c379a00000000000000000000000000000000000000000000000000000000081526004016115e2906133c2565b60405180910390fd5b600073ffffffffffffffffffffffffffffffffffffffff168273ffffffffffffffffffffffffffffffffffffffff160361165a576040517f08c379a000000000000000000000000000000000000000000000000000000000815260040161165190613454565b60405180910390fd5b611665838383611c2a565b6116706000826113a9565b6001600360008573ffffffffffffffffffffffffffffffffffffffff1673ffffffffffffffffffffffffffffffffffffffff16815260200190815260200160002060008282546116c09190613474565b925050819055506001600360008473ffffffffffffffffffffffffffffffffffffffff1673ffffffffffffffffffffffffffffffffffffffff16815260200190815260200160002060008282546117179190612985565b92505081905550816002600083815260200190815260200160002060006101000a81548173ffffffffffffffffffffffffffffffffffffffff021916908373ffffffffffffffffffffffffffffffffffffffff160217905550808273ffffffffffffffffffffffffffffffffffffffff168473ffffffffffffffffffffffffffffffffffffffff167fddf252ad1be2c89b69c2b068fc378daa952ba7f163c4a11628f55a4df523b3ef60405160405180910390a46117d6838383611c2f565b505050565b6000600760009054906101000a900473ffffffffffffffffffffffffffffffffffffffff16905081600760006101000a81548173ffffffffffffffffffffffffffffffffffffffff021916908373ffffffffffffffffffffffffffffffffffffffff1602179055508173ffffffffffffffffffffffffffffffffffffffff168173ffffffffffffffffffffffffffffffffffffffff167f8be0079c531659141344cd1fd0a4f28419497f9722a3daafe3b4186f6b6457e060405160405180910390a35050565b8173ffffffffffffffffffffffffffffffffffffffff168373ffffffffffffffffffffffffffffffffffffffff160361190f576040517f08c379a0000000000000000000000000000000000000000000000000000000008152600401611906906134f4565b60405180910390fd5b80600560008573ffffffffffffffffffffffffffffffffffffffff1673ffffffffffffffffffffffffffffffffffffffff16815260200190815260200160002060008473ffffffffffffffffffffffffffffffffffffffff1673ffffffffffffffffffffffffffffffffffffffff16815260200190815260200160002060006101000a81548160ff0219169083151502179055508173ffffffffffffffffffffffffffffffffffffffff168373ffffffffffffffffffffffffffffffffffffffff167f17307eab39ab6107e8899845ad3d59bd9653f200f220920489ca2b5937696c3183604051611a0091906121cb565b60405180910390a3505050565b611a18848484611575565b611a2484848484611c34565b611a63576040517f08c379a0000000000000000000000000000000000000000000000000000000008152600401611a5a90613586565b60405180910390fd5b50505050565b6060600f8054611a7890612b88565b80601f0160208091040260200160405190810160405280929190818152602001828054611aa490612b88565b8015611af15780601f10611ac657610100808354040283529160200191611af1565b820191906000526020600020905b815481529060010190602001808311611ad457829003601f168201915b5050505050905090565b6060611b0682611356565b6000611b10611a69565b90506000815111611b305760405180602001604052806000815250611b5b565b80611b3a84611dbb565b604051602001611b4b92919061322e565b6040516020818303038152906040525b915050919050565b611b6d8383611f1b565b611b7a6000848484611c34565b611bb9576040517f08c379a0000000000000000000000000000000000000000000000000000000008152600401611bb090613586565b60405180910390fd5b505050565b60008073ffffffffffffffffffffffffffffffffffffffff166002600084815260200190815260200160002060009054906101000a900473ffffffffffffffffffffffffffffffffffffffff1673ffffffffffffffffffffffffffffffffffffffff1614159050919050565b505050565b505050565b6000611c558473ffffffffffffffffffffffffffffffffffffffff166120f4565b15611dae578373ffffffffffffffffffffffffffffffffffffffff1663150b7a02611c7e6113a1565b8786866040518563ffffffff1660e01b8152600401611ca094939291906135fb565b6020604051808303816000875af1925050508015611cdc57506040513d601f19601f82011682018060405250810190611cd9919061365c565b60015b611d5e573d8060008114611d0c576040519150601f19603f3d011682016040523d82523d6000602084013e611d11565b606091505b506000815103611d56576040517f08c379a0000000000000000000000000000000000000000000000000000000008152600401611d4d90613586565b60405180910390fd5b805181602001fd5b63150b7a0260e01b7bffffffffffffffffffffffffffffffffffffffffffffffffffffffff1916817bffffffffffffffffffffffffffffffffffffffffffffffffffffffff191614915050611db3565b600190505b949350505050565b606060008203611e02576040518060400160405280600181526020017f30000000000000000000000000000000000000000000000000000000000000008152509050611f16565b600082905060005b60008214611e34578080611e1d90612b11565b915050600a82611e2d91906136b8565b9150611e0a565b60008167ffffffffffffffff811115611e5057611e4f6126cf565b5b6040519080825280601f01601f191660200182016040528015611e825781602001600182028036833780820191505090505b5090505b60008514611f0f57600182611e9b9190613474565b9150600a85611eaa91906136e9565b6030611eb69190612985565b60f81b818381518110611ecc57611ecb61371a565b5b60200101907effffffffffffffffffffffffffffffffffffffffffffffffffffffffffffff1916908160001a905350600a85611f0891906136b8565b9450611e86565b8093505050505b919050565b600073ffffffffffffffffffffffffffffffffffffffff168273ffffffffffffffffffffffffffffffffffffffff1603611f8a576040517f08c379a0000000000000000000000000000000000000000000000000000000008152600401611f8190613795565b60405180910390fd5b611f9381611bbe565b15611fd3576040517f08c379a0000000000000000000000000000000000000000000000000000000008152600401611fca90613801565b60405180910390fd5b611fdf60008383611c2a565b6001600360008473ffffffffffffffffffffffffffffffffffffffff1673ffffffffffffffffffffffffffffffffffffffff168152602001908152602001600020600082825461202f9190612985565b92505081905550816002600083815260200190815260200160002060006101000a81548173ffffffffffffffffffffffffffffffffffffffff021916908373ffffffffffffffffffffffffffffffffffffffff160217905550808273ffffffffffffffffffffffffffffffffffffffff16600073ffffffffffffffffffffffffffffffffffffffff167fddf252ad1be2c89b69c2b068fc378daa952ba7f163c4a11628f55a4df523b3ef60405160405180910390a46120f060008383611c2f565b5050565b6000808273ffffffffffffffffffffffffffffffffffffffff163b119050919050565b6000604051905090565b600080fd5b600080fd5b60007fffffffff0000000000000000000000000000000000000000000000000000000082169050919050565b6121608161212b565b811461216b57600080fd5b50565b60008135905061217d81612157565b92915050565b60006020828403121561219957612198612121565b5b60006121a78482850161216e565b91505092915050565b60008115159050919050565b6121c5816121b0565b82525050565b60006020820190506121e060008301846121bc565b92915050565b600080fd5b600080fd5b600080fd5b60008083601f84011261220b5761220a6121e6565b5b8235905067ffffffffffffffff811115612228576122276121eb565b5b602083019150836001820283011115612244576122436121f0565b5b9250929050565b6000819050919050565b61225e8161224b565b811461226957600080fd5b50565b60008135905061227b81612255565b92915050565b60008060006040848603121561229a57612299612121565b5b600084013567ffffffffffffffff8111156122b8576122b7612126565b5b6122c4868287016121f5565b935093505060206122d78682870161226c565b9150509250925092565b600081519050919050565b600082825260208201905092915050565b60005b8381101561231b578082015181840152602081019050612300565b60008484015250505050565b6000601f19601f8301169050919050565b6000612343826122e1565b61234d81856122ec565b935061235d8185602086016122fd565b61236681612327565b840191505092915050565b6000602082019050818103600083015261238b8184612338565b905092915050565b6000602082840312156123a9576123a8612121565b5b60006123b78482850161226c565b91505092915050565b600073ffffffffffffffffffffffffffffffffffffffff82169050919050565b60006123eb826123c0565b9050919050565b6123fb816123e0565b82525050565b600060208201905061241660008301846123f2565b92915050565b612425816123e0565b811461243057600080fd5b50565b6000813590506124428161241c565b92915050565b6000806040838503121561245f5761245e612121565b5b600061246d85828601612433565b925050602061247e8582860161226c565b9150509250929050565b600080600080606085870312156124a2576124a1612121565b5b60006124b087828801612433565b945050602085013567ffffffffffffffff8111156124d1576124d0612126565b5b6124dd878288016121f5565b935093505060406124f08782880161226c565b91505092959194509250565b6125058161224b565b82525050565b600060208201905061252060008301846124fc565b92915050565b60008060006060848603121561253f5761253e612121565b5b600061254d86828701612433565b935050602061255e86828701612433565b925050604061256f8682870161226c565b9150509250925092565b6000612584826123c0565b9050919050565b61259481612579565b811461259f57600080fd5b50565b6000813590506125b18161258b565b92915050565b6000602082840312156125cd576125cc612121565b5b60006125db848285016125a2565b91505092915050565b600080602083850312156125fb576125fa612121565b5b600083013567ffffffffffffffff81111561261957612618612126565b5b612625858286016121f5565b92509250509250929050565b60006020828403121561264757612646612121565b5b600061265584828501612433565b91505092915050565b612667816121b0565b811461267257600080fd5b50565b6000813590506126848161265e565b92915050565b600080604083850312156126a1576126a0612121565b5b60006126af85828601612433565b92505060206126c085828601612675565b9150509250929050565b600080fd5b7f4e487b7100000000000000000000000000000000000000000000000000000000600052604160045260246000fd5b61270782612327565b810181811067ffffffffffffffff82111715612726576127256126cf565b5b80604052505050565b6000612739612117565b905061274582826126fe565b919050565b600067ffffffffffffffff821115612765576127646126cf565b5b61276e82612327565b9050602081019050919050565b82818337600083830152505050565b600061279d6127988461274a565b61272f565b9050828152602081018484840111156127b9576127b86126ca565b5b6127c484828561277b565b509392505050565b600082601f8301126127e1576127e06121e6565b5b81356127f184826020860161278a565b91505092915050565b6000806000806080858703121561281457612813612121565b5b600061282287828801612433565b945050602061283387828801612433565b93505060406128448782880161226c565b925050606085013567ffffffffffffffff81111561286557612864612126565b5b612871878288016127cc565b91505092959194509250565b60006020828403121561289357612892612121565b5b60006128a184828501612675565b91505092915050565b600080604083850312156128c1576128c0612121565b5b60006128cf85828601612433565b92505060206128e085828601612433565b9150509250929050565b7f4d696e74696e672069732063757272656e746c79207061757365640000000000600082015250565b6000612920601b836122ec565b915061292b826128ea565b602082019050919050565b6000602082019050818103600083015261294f81612913565b9050919050565b7f4e487b7100000000000000000000000000000000000000000000000000000000600052601160045260246000fd5b60006129908261224b565b915061299b8361224b565b92508282019050808211156129b3576129b2612956565b5b92915050565b7f596f75206861766520657863656564656420746865206d6178206d696e74732060008201527f7065722077616c6c657400000000000000000000000000000000000000000000602082015250565b6000612a15602a836122ec565b9150612a20826129b9565b604082019050919050565b60006020820190508181036000830152612a4481612a08565b9050919050565b7f736f6c64206f7574000000000000000000000000000000000000000000000000600082015250565b6000612a816008836122ec565b9150612a8c82612a4b565b602082019050919050565b60006020820190508181036000830152612ab081612a74565b9050919050565b6000612ac28261224b565b9150612acd8361224b565b9250817fffffffffffffffffffffffffffffffffffffffffffffffffffffffffffffffff0483118215151615612b0657612b05612956565b5b828202905092915050565b6000612b1c8261224b565b91507fffffffffffffffffffffffffffffffffffffffffffffffffffffffffffffffff8203612b4e57612b4d612956565b5b600182019050919050565b7f4e487b7100000000000000000000000000000000000000000000000000000000600052602260045260246000fd5b60006002820490506001821680612ba057607f821691505b602082108103612bb357612bb2612b59565b5b50919050565b7f4552433732313a20617070726f76616c20746f2063757272656e74206f776e6560008201527f7200000000000000000000000000000000000000000000000000000000000000602082015250565b6000612c156021836122ec565b9150612c2082612bb9565b604082019050919050565b60006020820190508181036000830152612c4481612c08565b9050919050565b7f4552433732313a20617070726f76652063616c6c6572206973206e6f7420746f60008201527f6b656e206f776e6572206e6f7220617070726f76656420666f7220616c6c0000602082015250565b6000612ca7603e836122ec565b9150612cb282612c4b565b604082019050919050565b60006020820190508181036000830152612cd681612c9a565b9050919050565b7f4d696e74696e67206d7573742062652070617573656400000000000000000000600082015250565b6000612d136016836122ec565b9150612d1e82612cdd565b602082019050919050565b60006020820190508181036000830152612d4281612d06565b9050919050565b7f4552433732313a2063616c6c6572206973206e6f7420746f6b656e206f776e6560008201527f72206e6f7220617070726f766564000000000000000000000000000000000000602082015250565b6000612da5602e836122ec565b9150612db082612d49565b604082019050919050565b60006020820190508181036000830152612dd481612d98565b9050919050565b7f74686520636f6e747261637427732062616c616e636520697320656d7074792c60008201527f207a65726f6f6f6f000000000000000000000000000000000000000000000000602082015250565b6000612e376028836122ec565b9150612e4282612ddb565b604082019050919050565b60006020820190508181036000830152612e6681612e2a565b9050919050565b600082905092915050565b60008190508160005260206000209050919050565b60006020601f8301049050919050565b600082821b905092915050565b600060088302612eda7fffffffffffffffffffffffffffffffffffffffffffffffffffffffffffffffff82612e9d565b612ee48683612e9d565b95508019841693508086168417925050509392505050565b6000819050919050565b6000612f21612f1c612f178461224b565b612efc565b61224b565b9050919050565b6000819050919050565b612f3b83612f06565b612f4f612f4782612f28565b848454612eaa565b825550505050565b600090565b612f64612f57565b612f6f818484612f32565b505050565b5b81811015612f9357612f88600082612f5c565b600181019050612f75565b5050565b601f821115612fd857612fa981612e78565b612fb284612e8d565b81016020851015612fc1578190505b612fd5612fcd85612e8d565b830182612f74565b50505b505050565b600082821c905092915050565b6000612ffb60001984600802612fdd565b1980831691505092915050565b60006130148383612fea565b9150826002028217905092915050565b61302e8383612e6d565b67ffffffffffffffff811115613047576130466126cf565b5b6130518254612b88565b61305c828285612f97565b6000601f83116001811461308b5760008415613079578287013590505b6130838582613008565b8655506130eb565b601f19841661309986612e78565b60005b828110156130c15784890135825560018201915060208501945060208101905061309c565b868310156130de57848901356130da601f891682612fea565b8355505b6001600288020188555050505b50505050505050565b7f4552433732313a20696e76616c696420746f6b656e2049440000000000000000600082015250565b600061312a6018836122ec565b9150613135826130f4565b602082019050919050565b600060208201905081810360008301526131598161311d565b9050919050565b7f4552433732313a2061646472657373207a65726f206973206e6f74206120766160008201527f6c6964206f776e65720000000000000000000000000000000000000000000000602082015250565b60006131bc6029836122ec565b91506131c782613160565b604082019050919050565b600060208201905081810360008301526131eb816131af565b9050919050565b600081905092915050565b6000613208826122e1565b61321281856131f2565b93506132228185602086016122fd565b80840191505092915050565b600061323a82856131fd565b915061324682846131fd565b91508190509392505050565b7f4f776e61626c653a206e6577206f776e657220697320746865207a65726f206160008201527f6464726573730000000000000000000000000000000000000000000000000000602082015250565b60006132ae6026836122ec565b91506132b982613252565b604082019050919050565b600060208201905081810360008301526132dd816132a1565b9050919050565b7f4f776e61626c653a2063616c6c6572206973206e6f7420746865206f776e6572600082015250565b600061331a6020836122ec565b9150613325826132e4565b602082019050919050565b600060208201905081810360008301526133498161330d565b9050919050565b7f4552433732313a207472616e736665722066726f6d20696e636f72726563742060008201527f6f776e6572000000000000000000000000000000000000000000000000000000602082015250565b60006133ac6025836122ec565b91506133b782613350565b604082019050919050565b600060208201905081810360008301526133db8161339f565b9050919050565b7f4552433732313a207472616e7366657220746f20746865207a65726f2061646460008201527f7265737300000000000000000000000000000000000000000000000000000000602082015250565b600061343e6024836122ec565b9150613449826133e2565b604082019050919050565b6000602082019050818103600083015261346d81613431565b9050919050565b600061347f8261224b565b915061348a8361224b565b92508282039050818111156134a2576134a1612956565b5b92915050565b7f4552433732313a20617070726f766520746f2063616c6c657200000000000000600082015250565b60006134de6019836122ec565b91506134e9826134a8565b602082019050919050565b6000602082019050818103600083015261350d816134d1565b9050919050565b7f4552433732313a207472616e7366657220746f206e6f6e20455243373231526560008201527f63656976657220696d706c656d656e7465720000000000000000000000000000602082015250565b60006135706032836122ec565b915061357b82613514565b604082019050919050565b6000602082019050818103600083015261359f81613563565b9050919050565b600081519050919050565b600082825260208201905092915050565b60006135cd826135a6565b6135d781856135b1565b93506135e78185602086016122fd565b6135f081612327565b840191505092915050565b600060808201905061361060008301876123f2565b61361d60208301866123f2565b61362a60408301856124fc565b818103606083015261363c81846135c2565b905095945050505050565b60008151905061365681612157565b92915050565b60006020828403121561367257613671612121565b5b600061368084828501613647565b91505092915050565b7f4e487b7100000000000000000000000000000000000000000000000000000000600052601260045260246000fd5b60006136c38261224b565b91506136ce8361224b565b9250826136de576136dd613689565b5b828204905092915050565b60006136f48261224b565b91506136ff8361224b565b92508261370f5761370e613689565b5b828206905092915050565b7f4e487b7100000000000000000000000000000000000000000000000000000000600052603260045260246000fd5b7f4552433732313a206d696e7420746f20746865207a65726f2061646472657373600082015250565b600061377f6020836122ec565b915061378a82613749565b602082019050919050565b600060208201905081810360008301526137ae81613772565b9050919050565b7f4552433732313a20746f6b656e20616c7265616479206d696e74656400000000600082015250565b60006137eb601c836122ec565b91506137f6826137b5565b602082019050919050565b6000602082019050818103600083015261381a816137de565b905091905056fea2646970667358221220ee0a1c27970fcdbf50d53ad90f50a7effcaa523fc9151809d506455b1ae3dd1264736f6c63430008100033",
  "immutableReferences": {},
  "source": "// SPDX-License-Identifier: MIT\npragma solidity ^0.8.1;\n\nimport \"@openzeppelin/contracts/token/ERC721/extensions/ERC721URIStorage.sol\";\nimport \"@openzeppelin/contracts/security/ReentrancyGuard.sol\";\nimport \"@openzeppelin/contracts/access/Ownable.sol\";\n\ncontract Big3NFT is ERC721URIStorage, Ownable, ReentrancyGuard {\n\n  uint256 public maxSupply;\n  uint256 public totalSupply;\n\n  bool public paused;\n  uint256 public _price;\n  uint256 public maxPerWallet;\n  mapping(address => uint256) public walletMints;\n  string private _baseTokenURI;\n\n\n  constructor() ERC721(\"Big3NFT\", \"B3N\"){\n    maxSupply = 10000;\n    _price = 0.01 ether;\n    paused = true;\n    maxPerWallet = 20;\n    totalSupply = 0;\n  }\n\n  function _baseURI() internal view virtual override returns (string memory) {\n        return _baseTokenURI;\n    }\n\n    function setBaseURI(string calldata baseURI) public{\n      _baseTokenURI = baseURI;\n    }\n  \n  // Mint for dev\n  function devMint(address _to, string calldata _tokensBaseURI, uint256 _qty) external onlyOwner{\n    require(paused == true, \"Minting must be paused\");\n    require(totalSupply + _qty <= maxSupply, \"sold out\");\n\n    setBaseURI(_tokensBaseURI);\n\n    for(uint256 i = 0; i < _qty; i++){\n      uint256 newTokenId = totalSupply + 1;\n      _safeMint(_to, newTokenId);\n      totalSupply++;\n    }\n  }\n\n  // Set Mint Price\n  function setPrice(uint newPrice) public onlyOwner{\n    _price = newPrice;\n  }\n\n  //set pause\n  function setPause(bool _pause) public onlyOwner{\n    paused = _pause;\n  }\n\n  //Mint multiple\n  function mint(string calldata _tokensBaseURI, uint256 _qty) public payable {\n    require(paused == false, \"Minting is currently paused\");\n    require(walletMints[msg.sender] + _qty <= maxPerWallet, \"You have exceeded the max mints per wallet\");\n    require(totalSupply + _qty <= maxSupply, \"sold out\");\n    require(msg.value >= _qty * _price);\n\n    setBaseURI(_tokensBaseURI);\n    for(uint256 i = 0; i < _qty; i++){\n      uint256 newTokenId = totalSupply + 1;\n      _safeMint(msg.sender, newTokenId);\n      totalSupply++;\n    }\n  }\n\n  function withdraw(address payable _to) public onlyOwner{\n    require(address(this).balance > 0, \"the contract's balance is empty, zeroooo\");\n    _to.transfer(address(this).balance);\n  }\n}\n",
  "sourcePath": "C:/Users/LENOVO/Desktop/dev-isonu/big3Minting/contracts/Big3Minting.sol",
  "compiler": {
    "name": "solc",
    "version": "0.8.16+commit.07a7930e.Emscripten.clang"
  },
  "schemaVersion": "3.4.1",
  "updatedAt": "2022-08-22T01:08:55.754Z",
  "networkType": "ethereum",
  "devdoc": {
    "kind": "dev",
    "methods": {
      "approve(address,uint256)": {
        "details": "See {IERC721-approve}."
      },
      "balanceOf(address)": {
        "details": "See {IERC721-balanceOf}."
      },
      "getApproved(uint256)": {
        "details": "See {IERC721-getApproved}."
      },
      "isApprovedForAll(address,address)": {
        "details": "See {IERC721-isApprovedForAll}."
      },
      "name()": {
        "details": "See {IERC721Metadata-name}."
      },
      "owner()": {
        "details": "Returns the address of the current owner."
      },
      "ownerOf(uint256)": {
        "details": "See {IERC721-ownerOf}."
      },
      "renounceOwnership()": {
        "details": "Leaves the contract without owner. It will not be possible to call `onlyOwner` functions anymore. Can only be called by the current owner. NOTE: Renouncing ownership will leave the contract without an owner, thereby removing any functionality that is only available to the owner."
      },
      "safeTransferFrom(address,address,uint256)": {
        "details": "See {IERC721-safeTransferFrom}."
      },
      "safeTransferFrom(address,address,uint256,bytes)": {
        "details": "See {IERC721-safeTransferFrom}."
      },
      "setApprovalForAll(address,bool)": {
        "details": "See {IERC721-setApprovalForAll}."
      },
      "supportsInterface(bytes4)": {
        "details": "See {IERC165-supportsInterface}."
      },
      "symbol()": {
        "details": "See {IERC721Metadata-symbol}."
      },
      "tokenURI(uint256)": {
        "details": "See {IERC721Metadata-tokenURI}."
      },
      "transferFrom(address,address,uint256)": {
        "details": "See {IERC721-transferFrom}."
      },
      "transferOwnership(address)": {
        "details": "Transfers ownership of the contract to a new account (`newOwner`). Can only be called by the current owner."
      }
    },
    "version": 1
  },
  "userdoc": {
    "kind": "user",
    "methods": {},
    "version": 1
  }
}