{
  "contractName": "Big3NFT",
  "abi": [
    {
      "inputs": [],
      "stateMutability": "nonpayable",
      "type": "constructor"
    },
    {
      "anonymous": false,
      "inputs": [
        {
          "indexed": true,
          "internalType": "address",
          "name": "owner",
          "type": "address"
        },
        {
          "indexed": true,
          "internalType": "address",
          "name": "approved",
          "type": "address"
        },
        {
          "indexed": true,
          "internalType": "uint256",
          "name": "tokenId",
          "type": "uint256"
        }
      ],
      "name": "Approval",
      "type": "event"
    },
    {
      "anonymous": false,
      "inputs": [
        {
          "indexed": true,
          "internalType": "address",
          "name": "owner",
          "type": "address"
        },
        {
          "indexed": true,
          "internalType": "address",
          "name": "operator",
          "type": "address"
        },
        {
          "indexed": false,
          "internalType": "bool",
          "name": "approved",
          "type": "bool"
        }
      ],
      "name": "ApprovalForAll",
      "type": "event"
    },
    {
      "anonymous": false,
      "inputs": [
        {
          "indexed": true,
          "internalType": "address",
          "name": "previousOwner",
          "type": "address"
        },
        {
          "indexed": true,
          "internalType": "address",
          "name": "newOwner",
          "type": "address"
        }
      ],
      "name": "OwnershipTransferred",
      "type": "event"
    },
    {
      "anonymous": false,
      "inputs": [
        {
          "indexed": true,
          "internalType": "address",
          "name": "from",
          "type": "address"
        },
        {
          "indexed": true,
          "internalType": "address",
          "name": "to",
          "type": "address"
        },
        {
          "indexed": true,
          "internalType": "uint256",
          "name": "tokenId",
          "type": "uint256"
        }
      ],
      "name": "Transfer",
      "type": "event"
    },
    {
      "inputs": [],
      "name": "_price",
      "outputs": [
        {
          "internalType": "uint256",
          "name": "",
          "type": "uint256"
        }
      ],
      "stateMutability": "view",
      "type": "function",
      "constant": true
    },
    {
      "inputs": [
        {
          "internalType": "address",
          "name": "to",
          "type": "address"
        },
        {
          "internalType": "uint256",
          "name": "tokenId",
          "type": "uint256"
        }
      ],
      "name": "approve",
      "outputs": [],
      "stateMutability": "nonpayable",
      "type": "function"
    },
    {
      "inputs": [
        {
          "internalType": "address",
          "name": "owner",
          "type": "address"
        }
      ],
      "name": "balanceOf",
      "outputs": [
        {
          "internalType": "uint256",
          "name": "",
          "type": "uint256"
        }
      ],
      "stateMutability": "view",
      "type": "function",
      "constant": true
    },
    {
      "inputs": [
        {
          "internalType": "uint256",
          "name": "tokenId",
          "type": "uint256"
        }
      ],
      "name": "getApproved",
      "outputs": [
        {
          "internalType": "address",
          "name": "",
          "type": "address"
        }
      ],
      "stateMutability": "view",
      "type": "function",
      "constant": true
    },
    {
      "inputs": [
        {
          "internalType": "address",
          "name": "owner",
          "type": "address"
        },
        {
          "internalType": "address",
          "name": "operator",
          "type": "address"
        }
      ],
      "name": "isApprovedForAll",
      "outputs": [
        {
          "internalType": "bool",
          "name": "",
          "type": "bool"
        }
      ],
      "stateMutability": "view",
      "type": "function",
      "constant": true
    },
    {
      "inputs": [],
      "name": "maxPerWallet",
      "outputs": [
        {
          "internalType": "uint256",
          "name": "",
          "type": "uint256"
        }
      ],
      "stateMutability": "view",
      "type": "function",
      "constant": true
    },
    {
      "inputs": [],
      "name": "maxSupply",
      "outputs": [
        {
          "internalType": "uint256",
          "name": "",
          "type": "uint256"
        }
      ],
      "stateMutability": "view",
      "type": "function",
      "constant": true
    },
    {
      "inputs": [],
      "name": "name",
      "outputs": [
        {
          "internalType": "string",
          "name": "",
          "type": "string"
        }
      ],
      "stateMutability": "view",
      "type": "function",
      "constant": true
    },
    {
      "inputs": [],
      "name": "owner",
      "outputs": [
        {
          "internalType": "address",
          "name": "",
          "type": "address"
        }
      ],
      "stateMutability": "view",
      "type": "function",
      "constant": true
    },
    {
      "inputs": [
        {
          "internalType": "uint256",
          "name": "tokenId",
          "type": "uint256"
        }
      ],
      "name": "ownerOf",
      "outputs": [
        {
          "internalType": "address",
          "name": "",
          "type": "address"
        }
      ],
      "stateMutability": "view",
      "type": "function",
      "constant": true
    },
    {
      "inputs": [],
      "name": "paused",
      "outputs": [
        {
          "internalType": "bool",
          "name": "",
          "type": "bool"
        }
      ],
      "stateMutability": "view",
      "type": "function",
      "constant": true
    },
    {
      "inputs": [],
      "name": "renounceOwnership",
      "outputs": [],
      "stateMutability": "nonpayable",
      "type": "function"
    },
    {
      "inputs": [
        {
          "internalType": "address",
          "name": "from",
          "type": "address"
        },
        {
          "internalType": "address",
          "name": "to",
          "type": "address"
        },
        {
          "internalType": "uint256",
          "name": "tokenId",
          "type": "uint256"
        }
      ],
      "name": "safeTransferFrom",
      "outputs": [],
      "stateMutability": "nonpayable",
      "type": "function"
    },
    {
      "inputs": [
        {
          "internalType": "address",
          "name": "from",
          "type": "address"
        },
        {
          "internalType": "address",
          "name": "to",
          "type": "address"
        },
        {
          "internalType": "uint256",
          "name": "tokenId",
          "type": "uint256"
        },
        {
          "internalType": "bytes",
          "name": "data",
          "type": "bytes"
        }
      ],
      "name": "safeTransferFrom",
      "outputs": [],
      "stateMutability": "nonpayable",
      "type": "function"
    },
    {
      "inputs": [
        {
          "internalType": "address",
          "name": "operator",
          "type": "address"
        },
        {
          "internalType": "bool",
          "name": "approved",
          "type": "bool"
        }
      ],
      "name": "setApprovalForAll",
      "outputs": [],
      "stateMutability": "nonpayable",
      "type": "function"
    },
    {
      "inputs": [
        {
          "internalType": "bytes4",
          "name": "interfaceId",
          "type": "bytes4"
        }
      ],
      "name": "supportsInterface",
      "outputs": [
        {
          "internalType": "bool",
          "name": "",
          "type": "bool"
        }
      ],
      "stateMutability": "view",
      "type": "function",
      "constant": true
    },
    {
      "inputs": [],
      "name": "symbol",
      "outputs": [
        {
          "internalType": "string",
          "name": "",
          "type": "string"
        }
      ],
      "stateMutability": "view",
      "type": "function",
      "constant": true
    },
    {
      "inputs": [
        {
          "internalType": "uint256",
          "name": "tokenId",
          "type": "uint256"
        }
      ],
      "name": "tokenURI",
      "outputs": [
        {
          "internalType": "string",
          "name": "",
          "type": "string"
        }
      ],
      "stateMutability": "view",
      "type": "function",
      "constant": true
    },
    {
      "inputs": [
        {
          "internalType": "address",
          "name": "from",
          "type": "address"
        },
        {
          "internalType": "address",
          "name": "to",
          "type": "address"
        },
        {
          "internalType": "uint256",
          "name": "tokenId",
          "type": "uint256"
        }
      ],
      "name": "transferFrom",
      "outputs": [],
      "stateMutability": "nonpayable",
      "type": "function"
    },
    {
      "inputs": [
        {
          "internalType": "address",
          "name": "newOwner",
          "type": "address"
        }
      ],
      "name": "transferOwnership",
      "outputs": [],
      "stateMutability": "nonpayable",
      "type": "function"
    },
    {
      "inputs": [
        {
          "internalType": "address",
          "name": "",
          "type": "address"
        }
      ],
      "name": "walletMints",
      "outputs": [
        {
          "internalType": "uint256",
          "name": "",
          "type": "uint256"
        }
      ],
      "stateMutability": "view",
      "type": "function",
      "constant": true
    },
    {
      "inputs": [
        {
          "internalType": "string",
          "name": "baseURI",
          "type": "string"
        }
      ],
      "name": "setBaseURI",
      "outputs": [],
      "stateMutability": "nonpayable",
      "type": "function"
    },
    {
      "inputs": [
        {
          "internalType": "address",
          "name": "_to",
          "type": "address"
        },
        {
          "internalType": "string",
          "name": "_tokensBaseURI",
          "type": "string"
        },
        {
          "internalType": "uint256",
          "name": "_qty",
          "type": "uint256"
        }
      ],
      "name": "devMint",
      "outputs": [],
      "stateMutability": "nonpayable",
      "type": "function"
    },
    {
      "inputs": [
        {
          "internalType": "uint256",
          "name": "newPrice",
          "type": "uint256"
        }
      ],
      "name": "setPrice",
      "outputs": [],
      "stateMutability": "nonpayable",
      "type": "function"
    },
    {
      "inputs": [
        {
          "internalType": "bool",
          "name": "_pause",
          "type": "bool"
        }
      ],
      "name": "setPause",
      "outputs": [],
      "stateMutability": "nonpayable",
      "type": "function"
    },
    {
      "inputs": [
        {
          "internalType": "string",
          "name": "_tokensBaseURI",
          "type": "string"
        },
        {
          "internalType": "uint256",
          "name": "_qty",
          "type": "uint256"
        }
      ],
      "name": "mint",
      "outputs": [],
      "stateMutability": "payable",
      "type": "function",
      "payable": true
    },
    {
      "inputs": [
        {
          "internalType": "address payable",
          "name": "_to",
          "type": "address"
        }
      ],
      "name": "withdraw",
      "outputs": [],
      "stateMutability": "nonpayable",
      "type": "function"
    }
  ],
  "bytecode": "0x60806040523480156200001157600080fd5b506040518060400160405280600781526020017f426967334e4654000000000000000000000000000000000000000000000000008152506040518060400160405280600381526020017f42334e000000000000000000000000000000000000000000000000000000000081525081600090816200008f919062000454565b508060019081620000a1919062000454565b505050620000c4620000b86200010c60201b60201c565b6200011460201b60201c565b6001600881905550612710600a81905550662386f26fc10000600c819055506001600b60006101000a81548160ff0219169083151502179055506014600d819055506200053b565b600033905090565b6000600760009054906101000a900473ffffffffffffffffffffffffffffffffffffffff16905081600760006101000a81548173ffffffffffffffffffffffffffffffffffffffff021916908373ffffffffffffffffffffffffffffffffffffffff1602179055508173ffffffffffffffffffffffffffffffffffffffff168173ffffffffffffffffffffffffffffffffffffffff167f8be0079c531659141344cd1fd0a4f28419497f9722a3daafe3b4186f6b6457e060405160405180910390a35050565b600081519050919050565b7f4e487b7100000000000000000000000000000000000000000000000000000000600052604160045260246000fd5b7f4e487b7100000000000000000000000000000000000000000000000000000000600052602260045260246000fd5b600060028204905060018216806200025c57607f821691505b60208210810362000272576200027162000214565b5b50919050565b60008190508160005260206000209050919050565b60006020601f8301049050919050565b600082821b905092915050565b600060088302620002dc7fffffffffffffffffffffffffffffffffffffffffffffffffffffffffffffffff826200029d565b620002e886836200029d565b95508019841693508086168417925050509392505050565b6000819050919050565b6000819050919050565b6000620003356200032f620003298462000300565b6200030a565b62000300565b9050919050565b6000819050919050565b620003518362000314565b6200036962000360826200033c565b848454620002aa565b825550505050565b600090565b6200038062000371565b6200038d81848462000346565b505050565b5b81811015620003b557620003a960008262000376565b60018101905062000393565b5050565b601f8211156200040457620003ce8162000278565b620003d9846200028d565b81016020851015620003e9578190505b62000401620003f8856200028d565b83018262000392565b50505b505050565b600082821c905092915050565b6000620004296000198460080262000409565b1980831691505092915050565b600062000444838362000416565b9150826002028217905092915050565b6200045f82620001da565b67ffffffffffffffff8111156200047b576200047a620001e5565b5b62000487825462000243565b62000494828285620003b9565b600060209050601f831160018114620004cc5760008415620004b7578287015190505b620004c3858262000436565b86555062000533565b601f198416620004dc8662000278565b60005b828110156200050657848901518255600182019150602085019450602081019050620004df565b8683101562000526578489015162000522601f89168262000416565b8355505b6001600288020188555050505b505050505050565b613714806200054b6000396000f3fe60806040526004361061019c5760003560e01c80636352211e116100ec578063b88d4fde1161008a578063d5abeb0111610064578063d5abeb01146105a1578063e985e9c5146105cc578063f0293fd314610609578063f2fde38b146106465761019c565b8063b88d4fde14610512578063bedb86fb1461053b578063c87b56dd146105645761019c565b80638da5cb5b116100c65780638da5cb5b1461046a57806391b7f5ed1461049557806395d89b41146104be578063a22cb465146104e95761019c565b80636352211e146103d957806370a0823114610416578063715018a6146104535761019c565b8063235b6ea111610159578063453c231011610133578063453c23101461033157806351cff8d91461035c57806355f804b3146103855780635c975abb146103ae5761019c565b8063235b6ea1146102b457806323b872dd146102df57806342842e0e146103085761019c565b806301ffc9a7146101a1578063056b01ce146101de57806306fdde03146101fa578063081812fc14610225578063095ea7b31461026257806309ebd9661461028b575b600080fd5b3480156101ad57600080fd5b506101c860048036038101906101c391906120ac565b61066f565b6040516101d591906120f4565b60405180910390f35b6101f860048036038101906101f391906121aa565b610751565b005b34801561020657600080fd5b5061020f6108a8565b60405161021c919061229a565b60405180910390f35b34801561023157600080fd5b5061024c600480360381019061024791906122bc565b61093a565b604051610259919061232a565b60405180910390f35b34801561026e57600080fd5b5061028960048036038101906102849190612371565b610980565b005b34801561029757600080fd5b506102b260048036038101906102ad91906123b1565b610a97565b005b3480156102c057600080fd5b506102c9610b4e565b6040516102d69190612434565b60405180910390f35b3480156102eb57600080fd5b506103066004803603810190610301919061244f565b610b54565b005b34801561031457600080fd5b5061032f600480360381019061032a919061244f565b610bb4565b005b34801561033d57600080fd5b50610346610bd4565b6040516103539190612434565b60405180910390f35b34801561036857600080fd5b50610383600480360381019061037e91906124e0565b610bda565b005b34801561039157600080fd5b506103ac60048036038101906103a7919061250d565b610c6f565b005b3480156103ba57600080fd5b506103c3610c85565b6040516103d091906120f4565b60405180910390f35b3480156103e557600080fd5b5061040060048036038101906103fb91906122bc565b610c98565b60405161040d919061232a565b60405180910390f35b34801561042257600080fd5b5061043d6004803603810190610438919061255a565b610d49565b60405161044a9190612434565b60405180910390f35b34801561045f57600080fd5b50610468610e00565b005b34801561047657600080fd5b5061047f610e14565b60405161048c919061232a565b60405180910390f35b3480156104a157600080fd5b506104bc60048036038101906104b791906122bc565b610e3e565b005b3480156104ca57600080fd5b506104d3610e50565b6040516104e0919061229a565b60405180910390f35b3480156104f557600080fd5b50610510600480360381019061050b91906125b3565b610ee2565b005b34801561051e57600080fd5b5061053960048036038101906105349190612723565b610ef8565b005b34801561054757600080fd5b50610562600480360381019061055d91906127a6565b610f5a565b005b34801561057057600080fd5b5061058b600480360381019061058691906122bc565b610f7f565b604051610598919061229a565b60405180910390f35b3480156105ad57600080fd5b506105b6611091565b6040516105c39190612434565b60405180910390f35b3480156105d857600080fd5b506105f360048036038101906105ee91906127d3565b611097565b60405161060091906120f4565b60405180910390f35b34801561061557600080fd5b50610630600480360381019061062b919061255a565b61112b565b60405161063d9190612434565b60405180910390f35b34801561065257600080fd5b5061066d6004803603810190610668919061255a565b611143565b005b60007f80ac58cd000000000000000000000000000000000000000000000000000000007bffffffffffffffffffffffffffffffffffffffffffffffffffffffff1916827bffffffffffffffffffffffffffffffffffffffffffffffffffffffff1916148061073a57507f5b5e139f000000000000000000000000000000000000000000000000000000007bffffffffffffffffffffffffffffffffffffffffffffffffffffffff1916827bffffffffffffffffffffffffffffffffffffffffffffffffffffffff1916145b8061074a5750610749826111c6565b5b9050919050565b6000600b60006101000a81548160ff02191690831515021790556107aa576040517f08c379a00000000000000000000000000000000000000000000000000000000081526004016107a19061285f565b60405180910390fd5b600d5481600e60003373ffffffffffffffffffffffffffffffffffffffff1673ffffffffffffffffffffffffffffffffffffffff168152602001908152602001600020546107f891906128ae565b1115610839576040517f08c379a000000000000000000000000000000000000000000000000000000000815260040161083090612954565b60405180910390fd5b600c54816108479190612974565b34101561085357600080fd5b61085d8383610c6f565b60005b81811015610898576108726009611230565b610885336108806009611246565b611254565b8080610890906129ce565b915050610860565b506108a36009611272565b505050565b6060600080546108b790612a45565b80601f01602080910402602001604051908101604052809291908181526020018280546108e390612a45565b80156109305780601f1061090557610100808354040283529160200191610930565b820191906000526020600020905b81548152906001019060200180831161091357829003601f168201915b5050505050905090565b60006109458261127f565b6004600083815260200190815260200160002060009054906101000a900473ffffffffffffffffffffffffffffffffffffffff169050919050565b600061098b82610c98565b90508073ffffffffffffffffffffffffffffffffffffffff168373ffffffffffffffffffffffffffffffffffffffff16036109fb576040517f08c379a00000000000000000000000000000000000000000000000000000000081526004016109f290612ae8565b60405180910390fd5b8073ffffffffffffffffffffffffffffffffffffffff16610a1a6112ca565b73ffffffffffffffffffffffffffffffffffffffff161480610a495750610a4881610a436112ca565b611097565b5b610a88576040517f08c379a0000000000000000000000000000000000000000000000000000000008152600401610a7f90612b7a565b60405180910390fd5b610a9283836112d2565b505050565b610a9f61138b565b6001600b60006101000a81548160ff0219169083151502179055610af8576040517f08c379a0000000000000000000000000000000000000000000000000000000008152600401610aef90612be6565b60405180910390fd5b610b028383610c6f565b60005b81811015610b3d57610b176009611230565b610b2a85610b256009611246565b611254565b8080610b35906129ce565b915050610b05565b50610b486009611272565b50505050565b600c5481565b610b65610b5f6112ca565b82611409565b610ba4576040517f08c379a0000000000000000000000000000000000000000000000000000000008152600401610b9b90612c78565b60405180910390fd5b610baf83838361149e565b505050565b610bcf83838360405180602001604052806000815250610ef8565b505050565b600d5481565b610be261138b565b60004711610c25576040517f08c379a0000000000000000000000000000000000000000000000000000000008152600401610c1c90612d0a565b60405180910390fd5b8073ffffffffffffffffffffffffffffffffffffffff166108fc479081150290604051600060405180830381858888f19350505050158015610c6b573d6000803e3d6000fd5b5050565b8181600f9182610c80929190612ee1565b505050565b600b60009054906101000a900460ff1681565b6000806002600084815260200190815260200160002060009054906101000a900473ffffffffffffffffffffffffffffffffffffffff169050600073ffffffffffffffffffffffffffffffffffffffff168173ffffffffffffffffffffffffffffffffffffffff1603610d40576040517f08c379a0000000000000000000000000000000000000000000000000000000008152600401610d3790612ffd565b60405180910390fd5b80915050919050565b60008073ffffffffffffffffffffffffffffffffffffffff168273ffffffffffffffffffffffffffffffffffffffff1603610db9576040517f08c379a0000000000000000000000000000000000000000000000000000000008152600401610db09061308f565b60405180910390fd5b600360008373ffffffffffffffffffffffffffffffffffffffff1673ffffffffffffffffffffffffffffffffffffffff168152602001908152602001600020549050919050565b610e0861138b565b610e126000611704565b565b6000600760009054906101000a900473ffffffffffffffffffffffffffffffffffffffff16905090565b610e4661138b565b80600c8190555050565b606060018054610e5f90612a45565b80601f0160208091040260200160405190810160405280929190818152602001828054610e8b90612a45565b8015610ed85780601f10610ead57610100808354040283529160200191610ed8565b820191906000526020600020905b815481529060010190602001808311610ebb57829003601f168201915b5050505050905090565b610ef4610eed6112ca565b83836117ca565b5050565b610f09610f036112ca565b83611409565b610f48576040517f08c379a0000000000000000000000000000000000000000000000000000000008152600401610f3f90612c78565b60405180910390fd5b610f5484848484611936565b50505050565b610f6261138b565b80600b60006101000a81548160ff02191690831515021790555050565b6060610f8a8261127f565b6000600660008481526020019081526020016000208054610faa90612a45565b80601f0160208091040260200160405190810160405280929190818152602001828054610fd690612a45565b80156110235780601f10610ff857610100808354040283529160200191611023565b820191906000526020600020905b81548152906001019060200180831161100657829003601f168201915b505050505090506000611034611992565b9050600081510361104957819250505061108c565b60008251111561107e5780826040516020016110669291906130eb565b6040516020818303038152906040529250505061108c565b61108784611a24565b925050505b919050565b600a5481565b6000600560008473ffffffffffffffffffffffffffffffffffffffff1673ffffffffffffffffffffffffffffffffffffffff16815260200190815260200160002060008373ffffffffffffffffffffffffffffffffffffffff1673ffffffffffffffffffffffffffffffffffffffff16815260200190815260200160002060009054906101000a900460ff16905092915050565b600e6020528060005260406000206000915090505481565b61114b61138b565b600073ffffffffffffffffffffffffffffffffffffffff168173ffffffffffffffffffffffffffffffffffffffff16036111ba576040517f08c379a00000000000000000000000000000000000000000000000000000000081526004016111b190613181565b60405180910390fd5b6111c381611704565b50565b60007f01ffc9a7000000000000000000000000000000000000000000000000000000007bffffffffffffffffffffffffffffffffffffffffffffffffffffffff1916827bffffffffffffffffffffffffffffffffffffffffffffffffffffffff1916149050919050565b6001816000016000828254019250508190555050565b600081600001549050919050565b61126e828260405180602001604052806000815250611a8c565b5050565b6000816000018190555050565b61128881611ae7565b6112c7576040517f08c379a00000000000000000000000000000000000000000000000000000000081526004016112be90612ffd565b60405180910390fd5b50565b600033905090565b816004600083815260200190815260200160002060006101000a81548173ffffffffffffffffffffffffffffffffffffffff021916908373ffffffffffffffffffffffffffffffffffffffff160217905550808273ffffffffffffffffffffffffffffffffffffffff1661134583610c98565b73ffffffffffffffffffffffffffffffffffffffff167f8c5be1e5ebec7d5bd14f71427d1e84f3dd0314c0f7b2291e5b200ac8c7c3b92560405160405180910390a45050565b6113936112ca565b73ffffffffffffffffffffffffffffffffffffffff166113b1610e14565b73ffffffffffffffffffffffffffffffffffffffff1614611407576040517f08c379a00000000000000000000000000000000000000000000000000000000081526004016113fe906131ed565b60405180910390fd5b565b60008061141583610c98565b90508073ffffffffffffffffffffffffffffffffffffffff168473ffffffffffffffffffffffffffffffffffffffff16148061145757506114568185611097565b5b8061149557508373ffffffffffffffffffffffffffffffffffffffff1661147d8461093a565b73ffffffffffffffffffffffffffffffffffffffff16145b91505092915050565b8273ffffffffffffffffffffffffffffffffffffffff166114be82610c98565b73ffffffffffffffffffffffffffffffffffffffff1614611514576040517f08c379a000000000000000000000000000000000000000000000000000000000815260040161150b9061327f565b60405180910390fd5b600073ffffffffffffffffffffffffffffffffffffffff168273ffffffffffffffffffffffffffffffffffffffff1603611583576040517f08c379a000000000000000000000000000000000000000000000000000000000815260040161157a90613311565b60405180910390fd5b61158e838383611b53565b6115996000826112d2565b6001600360008573ffffffffffffffffffffffffffffffffffffffff1673ffffffffffffffffffffffffffffffffffffffff16815260200190815260200160002060008282546115e99190613331565b925050819055506001600360008473ffffffffffffffffffffffffffffffffffffffff1673ffffffffffffffffffffffffffffffffffffffff168152602001908152602001600020600082825461164091906128ae565b92505081905550816002600083815260200190815260200160002060006101000a81548173ffffffffffffffffffffffffffffffffffffffff021916908373ffffffffffffffffffffffffffffffffffffffff160217905550808273ffffffffffffffffffffffffffffffffffffffff168473ffffffffffffffffffffffffffffffffffffffff167fddf252ad1be2c89b69c2b068fc378daa952ba7f163c4a11628f55a4df523b3ef60405160405180910390a46116ff838383611b58565b505050565b6000600760009054906101000a900473ffffffffffffffffffffffffffffffffffffffff16905081600760006101000a81548173ffffffffffffffffffffffffffffffffffffffff021916908373ffffffffffffffffffffffffffffffffffffffff1602179055508173ffffffffffffffffffffffffffffffffffffffff168173ffffffffffffffffffffffffffffffffffffffff167f8be0079c531659141344cd1fd0a4f28419497f9722a3daafe3b4186f6b6457e060405160405180910390a35050565b8173ffffffffffffffffffffffffffffffffffffffff168373ffffffffffffffffffffffffffffffffffffffff1603611838576040517f08c379a000000000000000000000000000000000000000000000000000000000815260040161182f906133b1565b60405180910390fd5b80600560008573ffffffffffffffffffffffffffffffffffffffff1673ffffffffffffffffffffffffffffffffffffffff16815260200190815260200160002060008473ffffffffffffffffffffffffffffffffffffffff1673ffffffffffffffffffffffffffffffffffffffff16815260200190815260200160002060006101000a81548160ff0219169083151502179055508173ffffffffffffffffffffffffffffffffffffffff168373ffffffffffffffffffffffffffffffffffffffff167f17307eab39ab6107e8899845ad3d59bd9653f200f220920489ca2b5937696c318360405161192991906120f4565b60405180910390a3505050565b61194184848461149e565b61194d84848484611b5d565b61198c576040517f08c379a000000000000000000000000000000000000000000000000000000000815260040161198390613443565b60405180910390fd5b50505050565b6060600f80546119a190612a45565b80601f01602080910402602001604051908101604052809291908181526020018280546119cd90612a45565b8015611a1a5780601f106119ef57610100808354040283529160200191611a1a565b820191906000526020600020905b8154815290600101906020018083116119fd57829003601f168201915b5050505050905090565b6060611a2f8261127f565b6000611a39611992565b90506000815111611a595760405180602001604052806000815250611a84565b80611a6384611ce4565b604051602001611a749291906130eb565b6040516020818303038152906040525b915050919050565b611a968383611e44565b611aa36000848484611b5d565b611ae2576040517f08c379a0000000000000000000000000000000000000000000000000000000008152600401611ad990613443565b60405180910390fd5b505050565b60008073ffffffffffffffffffffffffffffffffffffffff166002600084815260200190815260200160002060009054906101000a900473ffffffffffffffffffffffffffffffffffffffff1673ffffffffffffffffffffffffffffffffffffffff1614159050919050565b505050565b505050565b6000611b7e8473ffffffffffffffffffffffffffffffffffffffff1661201d565b15611cd7578373ffffffffffffffffffffffffffffffffffffffff1663150b7a02611ba76112ca565b8786866040518563ffffffff1660e01b8152600401611bc994939291906134b8565b6020604051808303816000875af1925050508015611c0557506040513d601f19601f82011682018060405250810190611c029190613519565b60015b611c87573d8060008114611c35576040519150601f19603f3d011682016040523d82523d6000602084013e611c3a565b606091505b506000815103611c7f576040517f08c379a0000000000000000000000000000000000000000000000000000000008152600401611c7690613443565b60405180910390fd5b805181602001fd5b63150b7a0260e01b7bffffffffffffffffffffffffffffffffffffffffffffffffffffffff1916817bffffffffffffffffffffffffffffffffffffffffffffffffffffffff191614915050611cdc565b600190505b949350505050565b606060008203611d2b576040518060400160405280600181526020017f30000000000000000000000000000000000000000000000000000000000000008152509050611e3f565b600082905060005b60008214611d5d578080611d46906129ce565b915050600a82611d569190613575565b9150611d33565b60008167ffffffffffffffff811115611d7957611d786125f8565b5b6040519080825280601f01601f191660200182016040528015611dab5781602001600182028036833780820191505090505b5090505b60008514611e3857600182611dc49190613331565b9150600a85611dd391906135a6565b6030611ddf91906128ae565b60f81b818381518110611df557611df46135d7565b5b60200101907effffffffffffffffffffffffffffffffffffffffffffffffffffffffffffff1916908160001a905350600a85611e319190613575565b9450611daf565b8093505050505b919050565b600073ffffffffffffffffffffffffffffffffffffffff168273ffffffffffffffffffffffffffffffffffffffff1603611eb3576040517f08c379a0000000000000000000000000000000000000000000000000000000008152600401611eaa90613652565b60405180910390fd5b611ebc81611ae7565b15611efc576040517f08c379a0000000000000000000000000000000000000000000000000000000008152600401611ef3906136be565b60405180910390fd5b611f0860008383611b53565b6001600360008473ffffffffffffffffffffffffffffffffffffffff1673ffffffffffffffffffffffffffffffffffffffff1681526020019081526020016000206000828254611f5891906128ae565b92505081905550816002600083815260200190815260200160002060006101000a81548173ffffffffffffffffffffffffffffffffffffffff021916908373ffffffffffffffffffffffffffffffffffffffff160217905550808273ffffffffffffffffffffffffffffffffffffffff16600073ffffffffffffffffffffffffffffffffffffffff167fddf252ad1be2c89b69c2b068fc378daa952ba7f163c4a11628f55a4df523b3ef60405160405180910390a461201960008383611b58565b5050565b6000808273ffffffffffffffffffffffffffffffffffffffff163b119050919050565b6000604051905090565b600080fd5b600080fd5b60007fffffffff0000000000000000000000000000000000000000000000000000000082169050919050565b61208981612054565b811461209457600080fd5b50565b6000813590506120a681612080565b92915050565b6000602082840312156120c2576120c161204a565b5b60006120d084828501612097565b91505092915050565b60008115159050919050565b6120ee816120d9565b82525050565b600060208201905061210960008301846120e5565b92915050565b600080fd5b600080fd5b600080fd5b60008083601f8401126121345761213361210f565b5b8235905067ffffffffffffffff81111561215157612150612114565b5b60208301915083600182028301111561216d5761216c612119565b5b9250929050565b6000819050919050565b61218781612174565b811461219257600080fd5b50565b6000813590506121a48161217e565b92915050565b6000806000604084860312156121c3576121c261204a565b5b600084013567ffffffffffffffff8111156121e1576121e061204f565b5b6121ed8682870161211e565b9350935050602061220086828701612195565b9150509250925092565b600081519050919050565b600082825260208201905092915050565b60005b83811015612244578082015181840152602081019050612229565b60008484015250505050565b6000601f19601f8301169050919050565b600061226c8261220a565b6122768185612215565b9350612286818560208601612226565b61228f81612250565b840191505092915050565b600060208201905081810360008301526122b48184612261565b905092915050565b6000602082840312156122d2576122d161204a565b5b60006122e084828501612195565b91505092915050565b600073ffffffffffffffffffffffffffffffffffffffff82169050919050565b6000612314826122e9565b9050919050565b61232481612309565b82525050565b600060208201905061233f600083018461231b565b92915050565b61234e81612309565b811461235957600080fd5b50565b60008135905061236b81612345565b92915050565b600080604083850312156123885761238761204a565b5b60006123968582860161235c565b92505060206123a785828601612195565b9150509250929050565b600080600080606085870312156123cb576123ca61204a565b5b60006123d98782880161235c565b945050602085013567ffffffffffffffff8111156123fa576123f961204f565b5b6124068782880161211e565b9350935050604061241987828801612195565b91505092959194509250565b61242e81612174565b82525050565b60006020820190506124496000830184612425565b92915050565b6000806000606084860312156124685761246761204a565b5b60006124768682870161235c565b93505060206124878682870161235c565b925050604061249886828701612195565b9150509250925092565b60006124ad826122e9565b9050919050565b6124bd816124a2565b81146124c857600080fd5b50565b6000813590506124da816124b4565b92915050565b6000602082840312156124f6576124f561204a565b5b6000612504848285016124cb565b91505092915050565b600080602083850312156125245761252361204a565b5b600083013567ffffffffffffffff8111156125425761254161204f565b5b61254e8582860161211e565b92509250509250929050565b6000602082840312156125705761256f61204a565b5b600061257e8482850161235c565b91505092915050565b612590816120d9565b811461259b57600080fd5b50565b6000813590506125ad81612587565b92915050565b600080604083850312156125ca576125c961204a565b5b60006125d88582860161235c565b92505060206125e98582860161259e565b9150509250929050565b600080fd5b7f4e487b7100000000000000000000000000000000000000000000000000000000600052604160045260246000fd5b61263082612250565b810181811067ffffffffffffffff8211171561264f5761264e6125f8565b5b80604052505050565b6000612662612040565b905061266e8282612627565b919050565b600067ffffffffffffffff82111561268e5761268d6125f8565b5b61269782612250565b9050602081019050919050565b82818337600083830152505050565b60006126c66126c184612673565b612658565b9050828152602081018484840111156126e2576126e16125f3565b5b6126ed8482856126a4565b509392505050565b600082601f83011261270a5761270961210f565b5b813561271a8482602086016126b3565b91505092915050565b6000806000806080858703121561273d5761273c61204a565b5b600061274b8782880161235c565b945050602061275c8782880161235c565b935050604061276d87828801612195565b925050606085013567ffffffffffffffff81111561278e5761278d61204f565b5b61279a878288016126f5565b91505092959194509250565b6000602082840312156127bc576127bb61204a565b5b60006127ca8482850161259e565b91505092915050565b600080604083850312156127ea576127e961204a565b5b60006127f88582860161235c565b92505060206128098582860161235c565b9150509250929050565b7f4d696e74696e672069732063757272656e746c79207061757365640000000000600082015250565b6000612849601b83612215565b915061285482612813565b602082019050919050565b600060208201905081810360008301526128788161283c565b9050919050565b7f4e487b7100000000000000000000000000000000000000000000000000000000600052601160045260246000fd5b60006128b982612174565b91506128c483612174565b92508282019050808211156128dc576128db61287f565b5b92915050565b7f596f75206861766520657863656564656420746865206d6178206d696e74732060008201527f7065722077616c6c657400000000000000000000000000000000000000000000602082015250565b600061293e602a83612215565b9150612949826128e2565b604082019050919050565b6000602082019050818103600083015261296d81612931565b9050919050565b600061297f82612174565b915061298a83612174565b9250817fffffffffffffffffffffffffffffffffffffffffffffffffffffffffffffffff04831182151516156129c3576129c261287f565b5b828202905092915050565b60006129d982612174565b91507fffffffffffffffffffffffffffffffffffffffffffffffffffffffffffffffff8203612a0b57612a0a61287f565b5b600182019050919050565b7f4e487b7100000000000000000000000000000000000000000000000000000000600052602260045260246000fd5b60006002820490506001821680612a5d57607f821691505b602082108103612a7057612a6f612a16565b5b50919050565b7f4552433732313a20617070726f76616c20746f2063757272656e74206f776e6560008201527f7200000000000000000000000000000000000000000000000000000000000000602082015250565b6000612ad2602183612215565b9150612add82612a76565b604082019050919050565b60006020820190508181036000830152612b0181612ac5565b9050919050565b7f4552433732313a20617070726f76652063616c6c6572206973206e6f7420746f60008201527f6b656e206f776e6572206e6f7220617070726f76656420666f7220616c6c0000602082015250565b6000612b64603e83612215565b9150612b6f82612b08565b604082019050919050565b60006020820190508181036000830152612b9381612b57565b9050919050565b7f4d696e74696e67206d7573742062652070617573656400000000000000000000600082015250565b6000612bd0601683612215565b9150612bdb82612b9a565b602082019050919050565b60006020820190508181036000830152612bff81612bc3565b9050919050565b7f4552433732313a2063616c6c6572206973206e6f7420746f6b656e206f776e6560008201527f72206e6f7220617070726f766564000000000000000000000000000000000000602082015250565b6000612c62602e83612215565b9150612c6d82612c06565b604082019050919050565b60006020820190508181036000830152612c9181612c55565b9050919050565b7f74686520636f6e747261637427732062616c616e636520697320656d7074792c60008201527f207a65726f6f6f6f000000000000000000000000000000000000000000000000602082015250565b6000612cf4602883612215565b9150612cff82612c98565b604082019050919050565b60006020820190508181036000830152612d2381612ce7565b9050919050565b600082905092915050565b60008190508160005260206000209050919050565b60006020601f8301049050919050565b600082821b905092915050565b600060088302612d977fffffffffffffffffffffffffffffffffffffffffffffffffffffffffffffffff82612d5a565b612da18683612d5a565b95508019841693508086168417925050509392505050565b6000819050919050565b6000612dde612dd9612dd484612174565b612db9565b612174565b9050919050565b6000819050919050565b612df883612dc3565b612e0c612e0482612de5565b848454612d67565b825550505050565b600090565b612e21612e14565b612e2c818484612def565b505050565b5b81811015612e5057612e45600082612e19565b600181019050612e32565b5050565b601f821115612e9557612e6681612d35565b612e6f84612d4a565b81016020851015612e7e578190505b612e92612e8a85612d4a565b830182612e31565b50505b505050565b600082821c905092915050565b6000612eb860001984600802612e9a565b1980831691505092915050565b6000612ed18383612ea7565b9150826002028217905092915050565b612eeb8383612d2a565b67ffffffffffffffff811115612f0457612f036125f8565b5b612f0e8254612a45565b612f19828285612e54565b6000601f831160018114612f485760008415612f36578287013590505b612f408582612ec5565b865550612fa8565b601f198416612f5686612d35565b60005b82811015612f7e57848901358255600182019150602085019450602081019050612f59565b86831015612f9b5784890135612f97601f891682612ea7565b8355505b6001600288020188555050505b50505050505050565b7f4552433732313a20696e76616c696420746f6b656e2049440000000000000000600082015250565b6000612fe7601883612215565b9150612ff282612fb1565b602082019050919050565b6000602082019050818103600083015261301681612fda565b9050919050565b7f4552433732313a2061646472657373207a65726f206973206e6f74206120766160008201527f6c6964206f776e65720000000000000000000000000000000000000000000000602082015250565b6000613079602983612215565b91506130848261301d565b604082019050919050565b600060208201905081810360008301526130a88161306c565b9050919050565b600081905092915050565b60006130c58261220a565b6130cf81856130af565b93506130df818560208601612226565b80840191505092915050565b60006130f782856130ba565b915061310382846130ba565b91508190509392505050565b7f4f776e61626c653a206e6577206f776e657220697320746865207a65726f206160008201527f6464726573730000000000000000000000000000000000000000000000000000602082015250565b600061316b602683612215565b91506131768261310f565b604082019050919050565b6000602082019050818103600083015261319a8161315e565b9050919050565b7f4f776e61626c653a2063616c6c6572206973206e6f7420746865206f776e6572600082015250565b60006131d7602083612215565b91506131e2826131a1565b602082019050919050565b60006020820190508181036000830152613206816131ca565b9050919050565b7f4552433732313a207472616e736665722066726f6d20696e636f72726563742060008201527f6f776e6572000000000000000000000000000000000000000000000000000000602082015250565b6000613269602583612215565b91506132748261320d565b604082019050919050565b600060208201905081810360008301526132988161325c565b9050919050565b7f4552433732313a207472616e7366657220746f20746865207a65726f2061646460008201527f7265737300000000000000000000000000000000000000000000000000000000602082015250565b60006132fb602483612215565b91506133068261329f565b604082019050919050565b6000602082019050818103600083015261332a816132ee565b9050919050565b600061333c82612174565b915061334783612174565b925082820390508181111561335f5761335e61287f565b5b92915050565b7f4552433732313a20617070726f766520746f2063616c6c657200000000000000600082015250565b600061339b601983612215565b91506133a682613365565b602082019050919050565b600060208201905081810360008301526133ca8161338e565b9050919050565b7f4552433732313a207472616e7366657220746f206e6f6e20455243373231526560008201527f63656976657220696d706c656d656e7465720000000000000000000000000000602082015250565b600061342d603283612215565b9150613438826133d1565b604082019050919050565b6000602082019050818103600083015261345c81613420565b9050919050565b600081519050919050565b600082825260208201905092915050565b600061348a82613463565b613494818561346e565b93506134a4818560208601612226565b6134ad81612250565b840191505092915050565b60006080820190506134cd600083018761231b565b6134da602083018661231b565b6134e76040830185612425565b81810360608301526134f9818461347f565b905095945050505050565b60008151905061351381612080565b92915050565b60006020828403121561352f5761352e61204a565b5b600061353d84828501613504565b91505092915050565b7f4e487b7100000000000000000000000000000000000000000000000000000000600052601260045260246000fd5b600061358082612174565b915061358b83612174565b92508261359b5761359a613546565b5b828204905092915050565b60006135b182612174565b91506135bc83612174565b9250826135cc576135cb613546565b5b828206905092915050565b7f4e487b7100000000000000000000000000000000000000000000000000000000600052603260045260246000fd5b7f4552433732313a206d696e7420746f20746865207a65726f2061646472657373600082015250565b600061363c602083612215565b915061364782613606565b602082019050919050565b6000602082019050818103600083015261366b8161362f565b9050919050565b7f4552433732313a20746f6b656e20616c7265616479206d696e74656400000000600082015250565b60006136a8601c83612215565b91506136b382613672565b602082019050919050565b600060208201905081810360008301526136d78161369b565b905091905056fea2646970667358221220a6c465f8f4c7aaaabcf30dc4cd95f2ae964b8e1a4627a6690fcf6fc2bd0f304a64736f6c63430008100033",
  "immutableReferences": {},
  "source": "// SPDX-License-Identifier: MIT\npragma solidity ^0.8.0;\n\nimport \"@openzeppelin/contracts/token/ERC721/extensions/ERC721URIStorage.sol\";\nimport \"@openzeppelin/contracts/security/ReentrancyGuard.sol\";\nimport \"@openzeppelin/contracts/access/Ownable.sol\";\nimport \"@openzeppelin/contracts/utils/Counters.sol\";\n\ncontract Big3NFT is ERC721URIStorage, Ownable, ReentrancyGuard {\n  using Counters for Counters.Counter;\n  \n  Counters.Counter private _tokenIdCounter;\n  uint256 public maxSupply;\n  bool public paused;\n  uint256 public _price;\n  uint256 public maxPerWallet;\n  mapping(address => uint256) public walletMints;\n  string private _baseTokenURI;\n\n\n  constructor() ERC721(\"Big3NFT\", \"B3N\"){\n    maxSupply = 10000;\n    _price = 0.01 ether;\n    paused = true;\n    maxPerWallet = 20;\n  }\n\n  function _baseURI() internal view virtual override returns (string memory) {\n        return _baseTokenURI;\n    }\n\n    function setBaseURI(string calldata baseURI) public{\n      _baseTokenURI = baseURI;\n    }\n  \n  // Mint for dev\n  function devMint(address _to, string calldata _tokensBaseURI, uint256 _qty) external onlyOwner{\n    require(paused = true, \"Minting must be paused\");\n\n    setBaseURI(_tokensBaseURI);\n    for(uint256 i = 0; i < _qty; i++){\n      _tokenIdCounter.increment();\n      _safeMint(_to, _tokenIdCounter.current());\n    }\n    _tokenIdCounter.reset();\n  }\n\n  // Set Mint Price\n  function setPrice(uint newPrice) external onlyOwner{\n    _price = newPrice;\n  }\n\n  //set pause\n  function setPause(bool _pause) external onlyOwner{\n    paused = _pause;\n  }\n\n  //Mint multiple\n  function mint(string calldata _tokensBaseURI, uint256 _qty) public payable {\n    require(paused = false, \"Minting is currently paused\");\n    require(walletMints[msg.sender] + _qty <= maxPerWallet, \"You have exceeded the max mints per wallet\");\n    require(msg.value >= _qty * _price);\n\n    setBaseURI(_tokensBaseURI);\n    for(uint256 i = 0; i < _qty; i++){\n      _tokenIdCounter.increment();\n      _safeMint(msg.sender, _tokenIdCounter.current());\n    }\n    _tokenIdCounter.reset();\n  }\n\n  function withdraw(address payable _to) public onlyOwner{\n    require(address(this).balance > 0, \"the contract's balance is empty, zeroooo\");\n    _to.transfer(address(this).balance);\n  }\n}\n",
  "sourcePath": "C:/Users/LENOVO/Desktop/dev-isonu/big3Minting/contracts/Big3Minting.sol",
  "compiler": {
    "name": "solc",
    "version": "0.8.16+commit.07a7930e.Emscripten.clang"
  },
  "schemaVersion": "3.4.1",
  "updatedAt": "2022-08-21T01:19:34.580Z",
  "networkType": "ethereum",
  "devdoc": {
    "kind": "dev",
    "methods": {
      "approve(address,uint256)": {
        "details": "See {IERC721-approve}."
      },
      "balanceOf(address)": {
        "details": "See {IERC721-balanceOf}."
      },
      "getApproved(uint256)": {
        "details": "See {IERC721-getApproved}."
      },
      "isApprovedForAll(address,address)": {
        "details": "See {IERC721-isApprovedForAll}."
      },
      "name()": {
        "details": "See {IERC721Metadata-name}."
      },
      "owner()": {
        "details": "Returns the address of the current owner."
      },
      "ownerOf(uint256)": {
        "details": "See {IERC721-ownerOf}."
      },
      "renounceOwnership()": {
        "details": "Leaves the contract without owner. It will not be possible to call `onlyOwner` functions anymore. Can only be called by the current owner. NOTE: Renouncing ownership will leave the contract without an owner, thereby removing any functionality that is only available to the owner."
      },
      "safeTransferFrom(address,address,uint256)": {
        "details": "See {IERC721-safeTransferFrom}."
      },
      "safeTransferFrom(address,address,uint256,bytes)": {
        "details": "See {IERC721-safeTransferFrom}."
      },
      "setApprovalForAll(address,bool)": {
        "details": "See {IERC721-setApprovalForAll}."
      },
      "supportsInterface(bytes4)": {
        "details": "See {IERC165-supportsInterface}."
      },
      "symbol()": {
        "details": "See {IERC721Metadata-symbol}."
      },
      "tokenURI(uint256)": {
        "details": "See {IERC721Metadata-tokenURI}."
      },
      "transferFrom(address,address,uint256)": {
        "details": "See {IERC721-transferFrom}."
      },
      "transferOwnership(address)": {
        "details": "Transfers ownership of the contract to a new account (`newOwner`). Can only be called by the current owner."
      }
    },
    "version": 1
  },
  "userdoc": {
    "kind": "user",
    "methods": {},
    "version": 1
  }
}