{
  "contractName": "Big3NFT",
  "abi": [
    {
      "inputs": [],
      "stateMutability": "nonpayable",
      "type": "constructor"
    },
    {
      "anonymous": false,
      "inputs": [
        {
          "indexed": true,
          "internalType": "address",
          "name": "owner",
          "type": "address"
        },
        {
          "indexed": true,
          "internalType": "address",
          "name": "approved",
          "type": "address"
        },
        {
          "indexed": true,
          "internalType": "uint256",
          "name": "tokenId",
          "type": "uint256"
        }
      ],
      "name": "Approval",
      "type": "event"
    },
    {
      "anonymous": false,
      "inputs": [
        {
          "indexed": true,
          "internalType": "address",
          "name": "owner",
          "type": "address"
        },
        {
          "indexed": true,
          "internalType": "address",
          "name": "operator",
          "type": "address"
        },
        {
          "indexed": false,
          "internalType": "bool",
          "name": "approved",
          "type": "bool"
        }
      ],
      "name": "ApprovalForAll",
      "type": "event"
    },
    {
      "anonymous": false,
      "inputs": [
        {
          "indexed": true,
          "internalType": "address",
          "name": "previousOwner",
          "type": "address"
        },
        {
          "indexed": true,
          "internalType": "address",
          "name": "newOwner",
          "type": "address"
        }
      ],
      "name": "OwnershipTransferred",
      "type": "event"
    },
    {
      "anonymous": false,
      "inputs": [
        {
          "indexed": true,
          "internalType": "address",
          "name": "from",
          "type": "address"
        },
        {
          "indexed": true,
          "internalType": "address",
          "name": "to",
          "type": "address"
        },
        {
          "indexed": true,
          "internalType": "uint256",
          "name": "tokenId",
          "type": "uint256"
        }
      ],
      "name": "Transfer",
      "type": "event"
    },
    {
      "inputs": [],
      "name": "_price",
      "outputs": [
        {
          "internalType": "uint256",
          "name": "",
          "type": "uint256"
        }
      ],
      "stateMutability": "view",
      "type": "function",
      "constant": true
    },
    {
      "inputs": [
        {
          "internalType": "address",
          "name": "to",
          "type": "address"
        },
        {
          "internalType": "uint256",
          "name": "tokenId",
          "type": "uint256"
        }
      ],
      "name": "approve",
      "outputs": [],
      "stateMutability": "nonpayable",
      "type": "function"
    },
    {
      "inputs": [
        {
          "internalType": "address",
          "name": "owner",
          "type": "address"
        }
      ],
      "name": "balanceOf",
      "outputs": [
        {
          "internalType": "uint256",
          "name": "",
          "type": "uint256"
        }
      ],
      "stateMutability": "view",
      "type": "function",
      "constant": true
    },
    {
      "inputs": [
        {
          "internalType": "uint256",
          "name": "tokenId",
          "type": "uint256"
        }
      ],
      "name": "getApproved",
      "outputs": [
        {
          "internalType": "address",
          "name": "",
          "type": "address"
        }
      ],
      "stateMutability": "view",
      "type": "function",
      "constant": true
    },
    {
      "inputs": [
        {
          "internalType": "address",
          "name": "owner",
          "type": "address"
        },
        {
          "internalType": "address",
          "name": "operator",
          "type": "address"
        }
      ],
      "name": "isApprovedForAll",
      "outputs": [
        {
          "internalType": "bool",
          "name": "",
          "type": "bool"
        }
      ],
      "stateMutability": "view",
      "type": "function",
      "constant": true
    },
    {
      "inputs": [],
      "name": "maxPerWallet",
      "outputs": [
        {
          "internalType": "uint256",
          "name": "",
          "type": "uint256"
        }
      ],
      "stateMutability": "view",
      "type": "function",
      "constant": true
    },
    {
      "inputs": [],
      "name": "maxSupply",
      "outputs": [
        {
          "internalType": "uint256",
          "name": "",
          "type": "uint256"
        }
      ],
      "stateMutability": "view",
      "type": "function",
      "constant": true
    },
    {
      "inputs": [],
      "name": "name",
      "outputs": [
        {
          "internalType": "string",
          "name": "",
          "type": "string"
        }
      ],
      "stateMutability": "view",
      "type": "function",
      "constant": true
    },
    {
      "inputs": [],
      "name": "owner",
      "outputs": [
        {
          "internalType": "address",
          "name": "",
          "type": "address"
        }
      ],
      "stateMutability": "view",
      "type": "function",
      "constant": true
    },
    {
      "inputs": [
        {
          "internalType": "uint256",
          "name": "tokenId",
          "type": "uint256"
        }
      ],
      "name": "ownerOf",
      "outputs": [
        {
          "internalType": "address",
          "name": "",
          "type": "address"
        }
      ],
      "stateMutability": "view",
      "type": "function",
      "constant": true
    },
    {
      "inputs": [],
      "name": "paused",
      "outputs": [
        {
          "internalType": "bool",
          "name": "",
          "type": "bool"
        }
      ],
      "stateMutability": "view",
      "type": "function",
      "constant": true
    },
    {
      "inputs": [],
      "name": "renounceOwnership",
      "outputs": [],
      "stateMutability": "nonpayable",
      "type": "function"
    },
    {
      "inputs": [
        {
          "internalType": "address",
          "name": "from",
          "type": "address"
        },
        {
          "internalType": "address",
          "name": "to",
          "type": "address"
        },
        {
          "internalType": "uint256",
          "name": "tokenId",
          "type": "uint256"
        }
      ],
      "name": "safeTransferFrom",
      "outputs": [],
      "stateMutability": "nonpayable",
      "type": "function"
    },
    {
      "inputs": [
        {
          "internalType": "address",
          "name": "from",
          "type": "address"
        },
        {
          "internalType": "address",
          "name": "to",
          "type": "address"
        },
        {
          "internalType": "uint256",
          "name": "tokenId",
          "type": "uint256"
        },
        {
          "internalType": "bytes",
          "name": "data",
          "type": "bytes"
        }
      ],
      "name": "safeTransferFrom",
      "outputs": [],
      "stateMutability": "nonpayable",
      "type": "function"
    },
    {
      "inputs": [
        {
          "internalType": "address",
          "name": "operator",
          "type": "address"
        },
        {
          "internalType": "bool",
          "name": "approved",
          "type": "bool"
        }
      ],
      "name": "setApprovalForAll",
      "outputs": [],
      "stateMutability": "nonpayable",
      "type": "function"
    },
    {
      "inputs": [
        {
          "internalType": "bytes4",
          "name": "interfaceId",
          "type": "bytes4"
        }
      ],
      "name": "supportsInterface",
      "outputs": [
        {
          "internalType": "bool",
          "name": "",
          "type": "bool"
        }
      ],
      "stateMutability": "view",
      "type": "function",
      "constant": true
    },
    {
      "inputs": [],
      "name": "symbol",
      "outputs": [
        {
          "internalType": "string",
          "name": "",
          "type": "string"
        }
      ],
      "stateMutability": "view",
      "type": "function",
      "constant": true
    },
    {
      "inputs": [
        {
          "internalType": "uint256",
          "name": "tokenId",
          "type": "uint256"
        }
      ],
      "name": "tokenURI",
      "outputs": [
        {
          "internalType": "string",
          "name": "",
          "type": "string"
        }
      ],
      "stateMutability": "view",
      "type": "function",
      "constant": true
    },
    {
      "inputs": [
        {
          "internalType": "address",
          "name": "from",
          "type": "address"
        },
        {
          "internalType": "address",
          "name": "to",
          "type": "address"
        },
        {
          "internalType": "uint256",
          "name": "tokenId",
          "type": "uint256"
        }
      ],
      "name": "transferFrom",
      "outputs": [],
      "stateMutability": "nonpayable",
      "type": "function"
    },
    {
      "inputs": [
        {
          "internalType": "address",
          "name": "newOwner",
          "type": "address"
        }
      ],
      "name": "transferOwnership",
      "outputs": [],
      "stateMutability": "nonpayable",
      "type": "function"
    },
    {
      "inputs": [
        {
          "internalType": "address",
          "name": "",
          "type": "address"
        }
      ],
      "name": "walletMints",
      "outputs": [
        {
          "internalType": "uint256",
          "name": "",
          "type": "uint256"
        }
      ],
      "stateMutability": "view",
      "type": "function",
      "constant": true
    },
    {
      "inputs": [
        {
          "internalType": "address",
          "name": "_to",
          "type": "address"
        }
      ],
      "name": "devMint",
      "outputs": [],
      "stateMutability": "nonpayable",
      "type": "function"
    },
    {
      "inputs": [
        {
          "internalType": "uint256",
          "name": "newPrice",
          "type": "uint256"
        }
      ],
      "name": "setPrice",
      "outputs": [],
      "stateMutability": "nonpayable",
      "type": "function"
    },
    {
      "inputs": [
        {
          "internalType": "bool",
          "name": "_pause",
          "type": "bool"
        }
      ],
      "name": "setPause",
      "outputs": [],
      "stateMutability": "nonpayable",
      "type": "function"
    },
    {
      "inputs": [
        {
          "internalType": "string",
          "name": "_tokensBaseURI",
          "type": "string"
        }
      ],
      "name": "mint",
      "outputs": [],
      "stateMutability": "payable",
      "type": "function",
      "payable": true
    },
    {
      "inputs": [
        {
          "internalType": "address payable",
          "name": "_to",
          "type": "address"
        }
      ],
      "name": "withdraw",
      "outputs": [],
      "stateMutability": "nonpayable",
      "type": "function"
    }
  ],
  "bytecode": "0x60806040523480156200001157600080fd5b506040518060400160405280600781526020017f426967334e4654000000000000000000000000000000000000000000000000008152506040518060400160405280600381526020017f42334e000000000000000000000000000000000000000000000000000000000081525081600090816200008f919062000454565b508060019081620000a1919062000454565b505050620000c4620000b86200010c60201b60201c565b6200011460201b60201c565b6001600881905550612710600a81905550662386f26fc10000600c819055506001600b60006101000a81548160ff0219169083151502179055506014600d819055506200053b565b600033905090565b6000600760009054906101000a900473ffffffffffffffffffffffffffffffffffffffff16905081600760006101000a81548173ffffffffffffffffffffffffffffffffffffffff021916908373ffffffffffffffffffffffffffffffffffffffff1602179055508173ffffffffffffffffffffffffffffffffffffffff168173ffffffffffffffffffffffffffffffffffffffff167f8be0079c531659141344cd1fd0a4f28419497f9722a3daafe3b4186f6b6457e060405160405180910390a35050565b600081519050919050565b7f4e487b7100000000000000000000000000000000000000000000000000000000600052604160045260246000fd5b7f4e487b7100000000000000000000000000000000000000000000000000000000600052602260045260246000fd5b600060028204905060018216806200025c57607f821691505b60208210810362000272576200027162000214565b5b50919050565b60008190508160005260206000209050919050565b60006020601f8301049050919050565b600082821b905092915050565b600060088302620002dc7fffffffffffffffffffffffffffffffffffffffffffffffffffffffffffffffff826200029d565b620002e886836200029d565b95508019841693508086168417925050509392505050565b6000819050919050565b6000819050919050565b6000620003356200032f620003298462000300565b6200030a565b62000300565b9050919050565b6000819050919050565b620003518362000314565b6200036962000360826200033c565b848454620002aa565b825550505050565b600090565b6200038062000371565b6200038d81848462000346565b505050565b5b81811015620003b557620003a960008262000376565b60018101905062000393565b5050565b601f8211156200040457620003ce8162000278565b620003d9846200028d565b81016020851015620003e9578190505b62000401620003f8856200028d565b83018262000392565b50505b505050565b600082821c905092915050565b6000620004296000198460080262000409565b1980831691505092915050565b600062000444838362000416565b9150826002028217905092915050565b6200045f82620001da565b67ffffffffffffffff8111156200047b576200047a620001e5565b5b62000487825462000243565b62000494828285620003b9565b600060209050601f831160018114620004cc5760008415620004b7578287015190505b620004c3858262000436565b86555062000533565b601f198416620004dc8662000278565b60005b828110156200050657848901518255600182019150602085019450602081019050620004df565b8683101562000526578489015162000522601f89168262000416565b8355505b6001600288020188555050505b505050505050565b613677806200054b6000396000f3fe6080604052600436106101815760003560e01c8063715018a6116100d1578063bedb86fb1161008a578063d85d3d2711610064578063d85d3d271461056c578063e985e9c514610588578063f0293fd3146105c5578063f2fde38b1461060257610181565b8063bedb86fb146104db578063c87b56dd14610504578063d5abeb011461054157610181565b8063715018a6146103f35780638da5cb5b1461040a57806391b7f5ed1461043557806395d89b411461045e578063a22cb46514610489578063b88d4fde146104b257610181565b806341ee05f71161013e57806351cff8d91161011857806351cff8d9146103255780635c975abb1461034e5780636352211e1461037957806370a08231146103b657610181565b806341ee05f7146102a857806342842e0e146102d1578063453c2310146102fa57610181565b806301ffc9a71461018657806306fdde03146101c3578063081812fc146101ee578063095ea7b31461022b578063235b6ea11461025457806323b872dd1461027f575b600080fd5b34801561019257600080fd5b506101ad60048036038101906101a8919061200b565b61062b565b6040516101ba9190612053565b60405180910390f35b3480156101cf57600080fd5b506101d861070d565b6040516101e591906120fe565b60405180910390f35b3480156101fa57600080fd5b5061021560048036038101906102109190612156565b61079f565b60405161022291906121c4565b60405180910390f35b34801561023757600080fd5b50610252600480360381019061024d919061220b565b6107e5565b005b34801561026057600080fd5b506102696108fc565b604051610276919061225a565b60405180910390f35b34801561028b57600080fd5b506102a660048036038101906102a19190612275565b610902565b005b3480156102b457600080fd5b506102cf60048036038101906102ca91906122c8565b610962565b005b3480156102dd57600080fd5b506102f860048036038101906102f39190612275565b6109e3565b005b34801561030657600080fd5b5061030f610a03565b60405161031c919061225a565b60405180910390f35b34801561033157600080fd5b5061034c60048036038101906103479190612333565b610a09565b005b34801561035a57600080fd5b50610363610a9e565b6040516103709190612053565b60405180910390f35b34801561038557600080fd5b506103a0600480360381019061039b9190612156565b610ab1565b6040516103ad91906121c4565b60405180910390f35b3480156103c257600080fd5b506103dd60048036038101906103d891906122c8565b610b62565b6040516103ea919061225a565b60405180910390f35b3480156103ff57600080fd5b50610408610c19565b005b34801561041657600080fd5b5061041f610c2d565b60405161042c91906121c4565b60405180910390f35b34801561044157600080fd5b5061045c60048036038101906104579190612156565b610c57565b005b34801561046a57600080fd5b50610473610c69565b60405161048091906120fe565b60405180910390f35b34801561049557600080fd5b506104b060048036038101906104ab919061238c565b610cfb565b005b3480156104be57600080fd5b506104d960048036038101906104d49190612501565b610d11565b005b3480156104e757600080fd5b5061050260048036038101906104fd9190612584565b610d73565b005b34801561051057600080fd5b5061052b60048036038101906105269190612156565b610d98565b60405161053891906120fe565b60405180910390f35b34801561054d57600080fd5b50610556610eaa565b604051610563919061225a565b60405180910390f35b61058660048036038101906105819190612652565b610eb0565b005b34801561059457600080fd5b506105af60048036038101906105aa919061269b565b611011565b6040516105bc9190612053565b60405180910390f35b3480156105d157600080fd5b506105ec60048036038101906105e791906122c8565b6110a5565b6040516105f9919061225a565b60405180910390f35b34801561060e57600080fd5b50610629600480360381019061062491906122c8565b6110bd565b005b60007f80ac58cd000000000000000000000000000000000000000000000000000000007bffffffffffffffffffffffffffffffffffffffffffffffffffffffff1916827bffffffffffffffffffffffffffffffffffffffffffffffffffffffff191614806106f657507f5b5e139f000000000000000000000000000000000000000000000000000000007bffffffffffffffffffffffffffffffffffffffffffffffffffffffff1916827bffffffffffffffffffffffffffffffffffffffffffffffffffffffff1916145b80610706575061070582611140565b5b9050919050565b60606000805461071c9061270a565b80601f01602080910402602001604051908101604052809291908181526020018280546107489061270a565b80156107955780601f1061076a57610100808354040283529160200191610795565b820191906000526020600020905b81548152906001019060200180831161077857829003601f168201915b5050505050905090565b60006107aa826111aa565b6004600083815260200190815260200160002060009054906101000a900473ffffffffffffffffffffffffffffffffffffffff169050919050565b60006107f082610ab1565b90508073ffffffffffffffffffffffffffffffffffffffff168373ffffffffffffffffffffffffffffffffffffffff1603610860576040517f08c379a0000000000000000000000000000000000000000000000000000000008152600401610857906127ad565b60405180910390fd5b8073ffffffffffffffffffffffffffffffffffffffff1661087f6111f5565b73ffffffffffffffffffffffffffffffffffffffff1614806108ae57506108ad816108a86111f5565b611011565b5b6108ed576040517f08c379a00000000000000000000000000000000000000000000000000000000081526004016108e49061283f565b60405180910390fd5b6108f783836111fd565b505050565b600c5481565b61091361090d6111f5565b826112b6565b610952576040517f08c379a0000000000000000000000000000000000000000000000000000000008152600401610949906128d1565b60405180910390fd5b61095d83838361134b565b505050565b61096a6115b1565b6001600b60006101000a81548160ff02191690831515021790556109c3576040517f08c379a00000000000000000000000000000000000000000000000000000000081526004016109ba9061293d565b60405180910390fd5b6109cd600961162f565b6109e0816109db6009611645565b611653565b50565b6109fe83838360405180602001604052806000815250610d11565b505050565b600d5481565b610a116115b1565b60004711610a54576040517f08c379a0000000000000000000000000000000000000000000000000000000008152600401610a4b906129cf565b60405180910390fd5b8073ffffffffffffffffffffffffffffffffffffffff166108fc479081150290604051600060405180830381858888f19350505050158015610a9a573d6000803e3d6000fd5b5050565b600b60009054906101000a900460ff1681565b6000806002600084815260200190815260200160002060009054906101000a900473ffffffffffffffffffffffffffffffffffffffff169050600073ffffffffffffffffffffffffffffffffffffffff168173ffffffffffffffffffffffffffffffffffffffff1603610b59576040517f08c379a0000000000000000000000000000000000000000000000000000000008152600401610b5090612a3b565b60405180910390fd5b80915050919050565b60008073ffffffffffffffffffffffffffffffffffffffff168273ffffffffffffffffffffffffffffffffffffffff1603610bd2576040517f08c379a0000000000000000000000000000000000000000000000000000000008152600401610bc990612acd565b60405180910390fd5b600360008373ffffffffffffffffffffffffffffffffffffffff1673ffffffffffffffffffffffffffffffffffffffff168152602001908152602001600020549050919050565b610c216115b1565b610c2b6000611671565b565b6000600760009054906101000a900473ffffffffffffffffffffffffffffffffffffffff16905090565b610c5f6115b1565b80600c8190555050565b606060018054610c789061270a565b80601f0160208091040260200160405190810160405280929190818152602001828054610ca49061270a565b8015610cf15780601f10610cc657610100808354040283529160200191610cf1565b820191906000526020600020905b815481529060010190602001808311610cd457829003601f168201915b5050505050905090565b610d0d610d066111f5565b8383611737565b5050565b610d22610d1c6111f5565b836112b6565b610d61576040517f08c379a0000000000000000000000000000000000000000000000000000000008152600401610d58906128d1565b60405180910390fd5b610d6d848484846118a3565b50505050565b610d7b6115b1565b80600b60006101000a81548160ff02191690831515021790555050565b6060610da3826111aa565b6000600660008481526020019081526020016000208054610dc39061270a565b80601f0160208091040260200160405190810160405280929190818152602001828054610def9061270a565b8015610e3c5780601f10610e1157610100808354040283529160200191610e3c565b820191906000526020600020905b815481529060010190602001808311610e1f57829003601f168201915b505050505090506000610e4d6118ff565b90506000815103610e62578192505050610ea5565b600082511115610e97578082604051602001610e7f929190612b29565b60405160208183030381529060405292505050610ea5565b610ea084611916565b925050505b919050565b600a5481565b6000600b60006101000a81548160ff0219169083151502179055610f09576040517f08c379a0000000000000000000000000000000000000000000000000000000008152600401610f0090612b99565b60405180910390fd5b600d546001600e60003373ffffffffffffffffffffffffffffffffffffffff1673ffffffffffffffffffffffffffffffffffffffff16815260200190815260200160002054610f589190612be8565b1115610f99576040517f08c379a0000000000000000000000000000000000000000000000000000000008152600401610f9090612c8e565b60405180910390fd5b600c54341015610fde576040517f08c379a0000000000000000000000000000000000000000000000000000000008152600401610fd590612cfa565b60405180910390fd5b610fe8600961162f565b610ffb33610ff66009611645565b611653565b61100e6110086009611645565b8261197e565b50565b6000600560008473ffffffffffffffffffffffffffffffffffffffff1673ffffffffffffffffffffffffffffffffffffffff16815260200190815260200160002060008373ffffffffffffffffffffffffffffffffffffffff1673ffffffffffffffffffffffffffffffffffffffff16815260200190815260200160002060009054906101000a900460ff16905092915050565b600e6020528060005260406000206000915090505481565b6110c56115b1565b600073ffffffffffffffffffffffffffffffffffffffff168173ffffffffffffffffffffffffffffffffffffffff1603611134576040517f08c379a000000000000000000000000000000000000000000000000000000000815260040161112b90612d8c565b60405180910390fd5b61113d81611671565b50565b60007f01ffc9a7000000000000000000000000000000000000000000000000000000007bffffffffffffffffffffffffffffffffffffffffffffffffffffffff1916827bffffffffffffffffffffffffffffffffffffffffffffffffffffffff1916149050919050565b6111b3816119eb565b6111f2576040517f08c379a00000000000000000000000000000000000000000000000000000000081526004016111e990612a3b565b60405180910390fd5b50565b600033905090565b816004600083815260200190815260200160002060006101000a81548173ffffffffffffffffffffffffffffffffffffffff021916908373ffffffffffffffffffffffffffffffffffffffff160217905550808273ffffffffffffffffffffffffffffffffffffffff1661127083610ab1565b73ffffffffffffffffffffffffffffffffffffffff167f8c5be1e5ebec7d5bd14f71427d1e84f3dd0314c0f7b2291e5b200ac8c7c3b92560405160405180910390a45050565b6000806112c283610ab1565b90508073ffffffffffffffffffffffffffffffffffffffff168473ffffffffffffffffffffffffffffffffffffffff16148061130457506113038185611011565b5b8061134257508373ffffffffffffffffffffffffffffffffffffffff1661132a8461079f565b73ffffffffffffffffffffffffffffffffffffffff16145b91505092915050565b8273ffffffffffffffffffffffffffffffffffffffff1661136b82610ab1565b73ffffffffffffffffffffffffffffffffffffffff16146113c1576040517f08c379a00000000000000000000000000000000000000000000000000000000081526004016113b890612e1e565b60405180910390fd5b600073ffffffffffffffffffffffffffffffffffffffff168273ffffffffffffffffffffffffffffffffffffffff1603611430576040517f08c379a000000000000000000000000000000000000000000000000000000000815260040161142790612eb0565b60405180910390fd5b61143b838383611a57565b6114466000826111fd565b6001600360008573ffffffffffffffffffffffffffffffffffffffff1673ffffffffffffffffffffffffffffffffffffffff16815260200190815260200160002060008282546114969190612ed0565b925050819055506001600360008473ffffffffffffffffffffffffffffffffffffffff1673ffffffffffffffffffffffffffffffffffffffff16815260200190815260200160002060008282546114ed9190612be8565b92505081905550816002600083815260200190815260200160002060006101000a81548173ffffffffffffffffffffffffffffffffffffffff021916908373ffffffffffffffffffffffffffffffffffffffff160217905550808273ffffffffffffffffffffffffffffffffffffffff168473ffffffffffffffffffffffffffffffffffffffff167fddf252ad1be2c89b69c2b068fc378daa952ba7f163c4a11628f55a4df523b3ef60405160405180910390a46115ac838383611a5c565b505050565b6115b96111f5565b73ffffffffffffffffffffffffffffffffffffffff166115d7610c2d565b73ffffffffffffffffffffffffffffffffffffffff161461162d576040517f08c379a000000000000000000000000000000000000000000000000000000000815260040161162490612f50565b60405180910390fd5b565b6001816000016000828254019250508190555050565b600081600001549050919050565b61166d828260405180602001604052806000815250611a61565b5050565b6000600760009054906101000a900473ffffffffffffffffffffffffffffffffffffffff16905081600760006101000a81548173ffffffffffffffffffffffffffffffffffffffff021916908373ffffffffffffffffffffffffffffffffffffffff1602179055508173ffffffffffffffffffffffffffffffffffffffff168173ffffffffffffffffffffffffffffffffffffffff167f8be0079c531659141344cd1fd0a4f28419497f9722a3daafe3b4186f6b6457e060405160405180910390a35050565b8173ffffffffffffffffffffffffffffffffffffffff168373ffffffffffffffffffffffffffffffffffffffff16036117a5576040517f08c379a000000000000000000000000000000000000000000000000000000000815260040161179c90612fbc565b60405180910390fd5b80600560008573ffffffffffffffffffffffffffffffffffffffff1673ffffffffffffffffffffffffffffffffffffffff16815260200190815260200160002060008473ffffffffffffffffffffffffffffffffffffffff1673ffffffffffffffffffffffffffffffffffffffff16815260200190815260200160002060006101000a81548160ff0219169083151502179055508173ffffffffffffffffffffffffffffffffffffffff168373ffffffffffffffffffffffffffffffffffffffff167f17307eab39ab6107e8899845ad3d59bd9653f200f220920489ca2b5937696c31836040516118969190612053565b60405180910390a3505050565b6118ae84848461134b565b6118ba84848484611abc565b6118f9576040517f08c379a00000000000000000000000000000000000000000000000000000000081526004016118f09061304e565b60405180910390fd5b50505050565b606060405180602001604052806000815250905090565b6060611921826111aa565b600061192b6118ff565b9050600081511161194b5760405180602001604052806000815250611976565b8061195584611c43565b604051602001611966929190612b29565b6040516020818303038152906040525b915050919050565b611987826119eb565b6119c6576040517f08c379a00000000000000000000000000000000000000000000000000000000081526004016119bd906130e0565b60405180910390fd5b806006600084815260200190815260200160002090816119e691906132ac565b505050565b60008073ffffffffffffffffffffffffffffffffffffffff166002600084815260200190815260200160002060009054906101000a900473ffffffffffffffffffffffffffffffffffffffff1673ffffffffffffffffffffffffffffffffffffffff1614159050919050565b505050565b505050565b611a6b8383611da3565b611a786000848484611abc565b611ab7576040517f08c379a0000000000000000000000000000000000000000000000000000000008152600401611aae9061304e565b60405180910390fd5b505050565b6000611add8473ffffffffffffffffffffffffffffffffffffffff16611f7c565b15611c36578373ffffffffffffffffffffffffffffffffffffffff1663150b7a02611b066111f5565b8786866040518563ffffffff1660e01b8152600401611b2894939291906133d3565b6020604051808303816000875af1925050508015611b6457506040513d601f19601f82011682018060405250810190611b619190613434565b60015b611be6573d8060008114611b94576040519150601f19603f3d011682016040523d82523d6000602084013e611b99565b606091505b506000815103611bde576040517f08c379a0000000000000000000000000000000000000000000000000000000008152600401611bd59061304e565b60405180910390fd5b805181602001fd5b63150b7a0260e01b7bffffffffffffffffffffffffffffffffffffffffffffffffffffffff1916817bffffffffffffffffffffffffffffffffffffffffffffffffffffffff191614915050611c3b565b600190505b949350505050565b606060008203611c8a576040518060400160405280600181526020017f30000000000000000000000000000000000000000000000000000000000000008152509050611d9e565b600082905060005b60008214611cbc578080611ca590613461565b915050600a82611cb591906134d8565b9150611c92565b60008167ffffffffffffffff811115611cd857611cd76123d6565b5b6040519080825280601f01601f191660200182016040528015611d0a5781602001600182028036833780820191505090505b5090505b60008514611d9757600182611d239190612ed0565b9150600a85611d329190613509565b6030611d3e9190612be8565b60f81b818381518110611d5457611d5361353a565b5b60200101907effffffffffffffffffffffffffffffffffffffffffffffffffffffffffffff1916908160001a905350600a85611d9091906134d8565b9450611d0e565b8093505050505b919050565b600073ffffffffffffffffffffffffffffffffffffffff168273ffffffffffffffffffffffffffffffffffffffff1603611e12576040517f08c379a0000000000000000000000000000000000000000000000000000000008152600401611e09906135b5565b60405180910390fd5b611e1b816119eb565b15611e5b576040517f08c379a0000000000000000000000000000000000000000000000000000000008152600401611e5290613621565b60405180910390fd5b611e6760008383611a57565b6001600360008473ffffffffffffffffffffffffffffffffffffffff1673ffffffffffffffffffffffffffffffffffffffff1681526020019081526020016000206000828254611eb79190612be8565b92505081905550816002600083815260200190815260200160002060006101000a81548173ffffffffffffffffffffffffffffffffffffffff021916908373ffffffffffffffffffffffffffffffffffffffff160217905550808273ffffffffffffffffffffffffffffffffffffffff16600073ffffffffffffffffffffffffffffffffffffffff167fddf252ad1be2c89b69c2b068fc378daa952ba7f163c4a11628f55a4df523b3ef60405160405180910390a4611f7860008383611a5c565b5050565b6000808273ffffffffffffffffffffffffffffffffffffffff163b119050919050565b6000604051905090565b600080fd5b600080fd5b60007fffffffff0000000000000000000000000000000000000000000000000000000082169050919050565b611fe881611fb3565b8114611ff357600080fd5b50565b60008135905061200581611fdf565b92915050565b60006020828403121561202157612020611fa9565b5b600061202f84828501611ff6565b91505092915050565b60008115159050919050565b61204d81612038565b82525050565b60006020820190506120686000830184612044565b92915050565b600081519050919050565b600082825260208201905092915050565b60005b838110156120a857808201518184015260208101905061208d565b60008484015250505050565b6000601f19601f8301169050919050565b60006120d08261206e565b6120da8185612079565b93506120ea81856020860161208a565b6120f3816120b4565b840191505092915050565b6000602082019050818103600083015261211881846120c5565b905092915050565b6000819050919050565b61213381612120565b811461213e57600080fd5b50565b6000813590506121508161212a565b92915050565b60006020828403121561216c5761216b611fa9565b5b600061217a84828501612141565b91505092915050565b600073ffffffffffffffffffffffffffffffffffffffff82169050919050565b60006121ae82612183565b9050919050565b6121be816121a3565b82525050565b60006020820190506121d960008301846121b5565b92915050565b6121e8816121a3565b81146121f357600080fd5b50565b600081359050612205816121df565b92915050565b6000806040838503121561222257612221611fa9565b5b6000612230858286016121f6565b925050602061224185828601612141565b9150509250929050565b61225481612120565b82525050565b600060208201905061226f600083018461224b565b92915050565b60008060006060848603121561228e5761228d611fa9565b5b600061229c868287016121f6565b93505060206122ad868287016121f6565b92505060406122be86828701612141565b9150509250925092565b6000602082840312156122de576122dd611fa9565b5b60006122ec848285016121f6565b91505092915050565b600061230082612183565b9050919050565b612310816122f5565b811461231b57600080fd5b50565b60008135905061232d81612307565b92915050565b60006020828403121561234957612348611fa9565b5b60006123578482850161231e565b91505092915050565b61236981612038565b811461237457600080fd5b50565b60008135905061238681612360565b92915050565b600080604083850312156123a3576123a2611fa9565b5b60006123b1858286016121f6565b92505060206123c285828601612377565b9150509250929050565b600080fd5b600080fd5b7f4e487b7100000000000000000000000000000000000000000000000000000000600052604160045260246000fd5b61240e826120b4565b810181811067ffffffffffffffff8211171561242d5761242c6123d6565b5b80604052505050565b6000612440611f9f565b905061244c8282612405565b919050565b600067ffffffffffffffff82111561246c5761246b6123d6565b5b612475826120b4565b9050602081019050919050565b82818337600083830152505050565b60006124a461249f84612451565b612436565b9050828152602081018484840111156124c0576124bf6123d1565b5b6124cb848285612482565b509392505050565b600082601f8301126124e8576124e76123cc565b5b81356124f8848260208601612491565b91505092915050565b6000806000806080858703121561251b5761251a611fa9565b5b6000612529878288016121f6565b945050602061253a878288016121f6565b935050604061254b87828801612141565b925050606085013567ffffffffffffffff81111561256c5761256b611fae565b5b612578878288016124d3565b91505092959194509250565b60006020828403121561259a57612599611fa9565b5b60006125a884828501612377565b91505092915050565b600067ffffffffffffffff8211156125cc576125cb6123d6565b5b6125d5826120b4565b9050602081019050919050565b60006125f56125f0846125b1565b612436565b905082815260208101848484011115612611576126106123d1565b5b61261c848285612482565b509392505050565b600082601f830112612639576126386123cc565b5b81356126498482602086016125e2565b91505092915050565b60006020828403121561266857612667611fa9565b5b600082013567ffffffffffffffff81111561268657612685611fae565b5b61269284828501612624565b91505092915050565b600080604083850312156126b2576126b1611fa9565b5b60006126c0858286016121f6565b92505060206126d1858286016121f6565b9150509250929050565b7f4e487b7100000000000000000000000000000000000000000000000000000000600052602260045260246000fd5b6000600282049050600182168061272257607f821691505b602082108103612735576127346126db565b5b50919050565b7f4552433732313a20617070726f76616c20746f2063757272656e74206f776e6560008201527f7200000000000000000000000000000000000000000000000000000000000000602082015250565b6000612797602183612079565b91506127a28261273b565b604082019050919050565b600060208201905081810360008301526127c68161278a565b9050919050565b7f4552433732313a20617070726f76652063616c6c6572206973206e6f7420746f60008201527f6b656e206f776e6572206e6f7220617070726f76656420666f7220616c6c0000602082015250565b6000612829603e83612079565b9150612834826127cd565b604082019050919050565b600060208201905081810360008301526128588161281c565b9050919050565b7f4552433732313a2063616c6c6572206973206e6f7420746f6b656e206f776e6560008201527f72206e6f7220617070726f766564000000000000000000000000000000000000602082015250565b60006128bb602e83612079565b91506128c68261285f565b604082019050919050565b600060208201905081810360008301526128ea816128ae565b9050919050565b7f4d696e74696e67206d7573742062652070617573656400000000000000000000600082015250565b6000612927601683612079565b9150612932826128f1565b602082019050919050565b600060208201905081810360008301526129568161291a565b9050919050565b7f74686520636f6e747261637427732062616c616e636520697320656d7074792c60008201527f207a65726f6f6f6f000000000000000000000000000000000000000000000000602082015250565b60006129b9602883612079565b91506129c48261295d565b604082019050919050565b600060208201905081810360008301526129e8816129ac565b9050919050565b7f4552433732313a20696e76616c696420746f6b656e2049440000000000000000600082015250565b6000612a25601883612079565b9150612a30826129ef565b602082019050919050565b60006020820190508181036000830152612a5481612a18565b9050919050565b7f4552433732313a2061646472657373207a65726f206973206e6f74206120766160008201527f6c6964206f776e65720000000000000000000000000000000000000000000000602082015250565b6000612ab7602983612079565b9150612ac282612a5b565b604082019050919050565b60006020820190508181036000830152612ae681612aaa565b9050919050565b600081905092915050565b6000612b038261206e565b612b0d8185612aed565b9350612b1d81856020860161208a565b80840191505092915050565b6000612b358285612af8565b9150612b418284612af8565b91508190509392505050565b7f4d696e74696e672069732063757272656e746c79207061757365640000000000600082015250565b6000612b83601b83612079565b9150612b8e82612b4d565b602082019050919050565b60006020820190508181036000830152612bb281612b76565b9050919050565b7f4e487b7100000000000000000000000000000000000000000000000000000000600052601160045260246000fd5b6000612bf382612120565b9150612bfe83612120565b9250828201905080821115612c1657612c15612bb9565b5b92915050565b7f596f75206861766520657863656564656420746865206d6178206d696e74732060008201527f7065722077616c6c657400000000000000000000000000000000000000000000602082015250565b6000612c78602a83612079565b9150612c8382612c1c565b604082019050919050565b60006020820190508181036000830152612ca781612c6b565b9050919050565b7f4e6f7420656e6f756768206574686572732073656e7400000000000000000000600082015250565b6000612ce4601683612079565b9150612cef82612cae565b602082019050919050565b60006020820190508181036000830152612d1381612cd7565b9050919050565b7f4f776e61626c653a206e6577206f776e657220697320746865207a65726f206160008201527f6464726573730000000000000000000000000000000000000000000000000000602082015250565b6000612d76602683612079565b9150612d8182612d1a565b604082019050919050565b60006020820190508181036000830152612da581612d69565b9050919050565b7f4552433732313a207472616e736665722066726f6d20696e636f72726563742060008201527f6f776e6572000000000000000000000000000000000000000000000000000000602082015250565b6000612e08602583612079565b9150612e1382612dac565b604082019050919050565b60006020820190508181036000830152612e3781612dfb565b9050919050565b7f4552433732313a207472616e7366657220746f20746865207a65726f2061646460008201527f7265737300000000000000000000000000000000000000000000000000000000602082015250565b6000612e9a602483612079565b9150612ea582612e3e565b604082019050919050565b60006020820190508181036000830152612ec981612e8d565b9050919050565b6000612edb82612120565b9150612ee683612120565b9250828203905081811115612efe57612efd612bb9565b5b92915050565b7f4f776e61626c653a2063616c6c6572206973206e6f7420746865206f776e6572600082015250565b6000612f3a602083612079565b9150612f4582612f04565b602082019050919050565b60006020820190508181036000830152612f6981612f2d565b9050919050565b7f4552433732313a20617070726f766520746f2063616c6c657200000000000000600082015250565b6000612fa6601983612079565b9150612fb182612f70565b602082019050919050565b60006020820190508181036000830152612fd581612f99565b9050919050565b7f4552433732313a207472616e7366657220746f206e6f6e20455243373231526560008201527f63656976657220696d706c656d656e7465720000000000000000000000000000602082015250565b6000613038603283612079565b915061304382612fdc565b604082019050919050565b600060208201905081810360008301526130678161302b565b9050919050565b7f45524337323155524953746f726167653a2055524920736574206f66206e6f6e60008201527f6578697374656e7420746f6b656e000000000000000000000000000000000000602082015250565b60006130ca602e83612079565b91506130d58261306e565b604082019050919050565b600060208201905081810360008301526130f9816130bd565b9050919050565b60008190508160005260206000209050919050565b60006020601f8301049050919050565b600082821b905092915050565b6000600883026131627fffffffffffffffffffffffffffffffffffffffffffffffffffffffffffffffff82613125565b61316c8683613125565b95508019841693508086168417925050509392505050565b6000819050919050565b60006131a96131a461319f84612120565b613184565b612120565b9050919050565b6000819050919050565b6131c38361318e565b6131d76131cf826131b0565b848454613132565b825550505050565b600090565b6131ec6131df565b6131f78184846131ba565b505050565b5b8181101561321b576132106000826131e4565b6001810190506131fd565b5050565b601f8211156132605761323181613100565b61323a84613115565b81016020851015613249578190505b61325d61325585613115565b8301826131fc565b50505b505050565b600082821c905092915050565b600061328360001984600802613265565b1980831691505092915050565b600061329c8383613272565b9150826002028217905092915050565b6132b58261206e565b67ffffffffffffffff8111156132ce576132cd6123d6565b5b6132d8825461270a565b6132e382828561321f565b600060209050601f8311600181146133165760008415613304578287015190505b61330e8582613290565b865550613376565b601f19841661332486613100565b60005b8281101561334c57848901518255600182019150602085019450602081019050613327565b868310156133695784890151613365601f891682613272565b8355505b6001600288020188555050505b505050505050565b600081519050919050565b600082825260208201905092915050565b60006133a58261337e565b6133af8185613389565b93506133bf81856020860161208a565b6133c8816120b4565b840191505092915050565b60006080820190506133e860008301876121b5565b6133f560208301866121b5565b613402604083018561224b565b8181036060830152613414818461339a565b905095945050505050565b60008151905061342e81611fdf565b92915050565b60006020828403121561344a57613449611fa9565b5b60006134588482850161341f565b91505092915050565b600061346c82612120565b91507fffffffffffffffffffffffffffffffffffffffffffffffffffffffffffffffff820361349e5761349d612bb9565b5b600182019050919050565b7f4e487b7100000000000000000000000000000000000000000000000000000000600052601260045260246000fd5b60006134e382612120565b91506134ee83612120565b9250826134fe576134fd6134a9565b5b828204905092915050565b600061351482612120565b915061351f83612120565b92508261352f5761352e6134a9565b5b828206905092915050565b7f4e487b7100000000000000000000000000000000000000000000000000000000600052603260045260246000fd5b7f4552433732313a206d696e7420746f20746865207a65726f2061646472657373600082015250565b600061359f602083612079565b91506135aa82613569565b602082019050919050565b600060208201905081810360008301526135ce81613592565b9050919050565b7f4552433732313a20746f6b656e20616c7265616479206d696e74656400000000600082015250565b600061360b601c83612079565b9150613616826135d5565b602082019050919050565b6000602082019050818103600083015261363a816135fe565b905091905056fea264697066735822122018b1d90cd8a6ca3a8603376ad9df37aa45043a951d4f5b5d957d01bdca7f62f464736f6c63430008100033",
  "immutableReferences": {},
  "source": "// SPDX-License-Identifier: MIT\npragma solidity ^0.8.0;\n\nimport \"@openzeppelin/contracts/token/ERC721/extensions/ERC721URIStorage.sol\";\nimport \"@openzeppelin/contracts/security/ReentrancyGuard.sol\";\nimport \"@openzeppelin/contracts/access/Ownable.sol\";\nimport \"@openzeppelin/contracts/utils/Counters.sol\";\n\ncontract Big3NFT is ERC721URIStorage, Ownable, ReentrancyGuard {\n  using Counters for Counters.Counter;\n  \n  Counters.Counter private _tokenIdCounter;\n  uint256 public maxSupply;\n  bool public paused;\n  uint256 public _price;\n  uint256 public maxPerWallet;\n  mapping(address => uint256) public walletMints;\n\n\n  constructor() ERC721(\"Big3NFT\", \"B3N\"){\n    maxSupply = 10000;\n    _price = 0.01 ether;\n    paused = true;\n    maxPerWallet = 20;\n  }\n  \n  // Mint for dev\n  function devMint(address _to) external onlyOwner{\n    require(paused = true, \"Minting must be paused\");\n    _tokenIdCounter.increment();\n    _safeMint(_to, _tokenIdCounter.current());\n  }\n\n  // Set Mint Price\n  function setPrice(uint newPrice) external onlyOwner{\n    _price = newPrice;\n  }\n\n  //set pause\n  function setPause(bool _pause) external onlyOwner{\n    paused = _pause;\n  }\n\n  //Mint multiple\n  function mint(string memory _tokensBaseURI) public payable {\n    require(paused = false, \"Minting is currently paused\");\n    require(walletMints[msg.sender] + 1 <= maxPerWallet, \"You have exceeded the max mints per wallet\");\n    require(msg.value >= _price, \"Not enough ethers sent\");\n\n     _tokenIdCounter.increment();\n    _safeMint(msg.sender, _tokenIdCounter.current());\n    _setTokenURI(_tokenIdCounter.current(), _tokensBaseURI);\n  }\n\n  function withdraw(address payable _to) public onlyOwner{\n    require(address(this).balance > 0, \"the contract's balance is empty, zeroooo\");\n    _to.transfer(address(this).balance);\n  }\n}\n",
  "sourcePath": "C:/Users/LENOVO/Desktop/dev-isonu/big3Minting/contracts/Big3Minting.sol",
  "compiler": {
    "name": "solc",
    "version": "0.8.16+commit.07a7930e.Emscripten.clang"
  },
  "schemaVersion": "3.4.1",
  "updatedAt": "2022-08-18T21:35:22.067Z",
  "networkType": "ethereum",
  "devdoc": {
    "kind": "dev",
    "methods": {
      "approve(address,uint256)": {
        "details": "See {IERC721-approve}."
      },
      "balanceOf(address)": {
        "details": "See {IERC721-balanceOf}."
      },
      "getApproved(uint256)": {
        "details": "See {IERC721-getApproved}."
      },
      "isApprovedForAll(address,address)": {
        "details": "See {IERC721-isApprovedForAll}."
      },
      "name()": {
        "details": "See {IERC721Metadata-name}."
      },
      "owner()": {
        "details": "Returns the address of the current owner."
      },
      "ownerOf(uint256)": {
        "details": "See {IERC721-ownerOf}."
      },
      "renounceOwnership()": {
        "details": "Leaves the contract without owner. It will not be possible to call `onlyOwner` functions anymore. Can only be called by the current owner. NOTE: Renouncing ownership will leave the contract without an owner, thereby removing any functionality that is only available to the owner."
      },
      "safeTransferFrom(address,address,uint256)": {
        "details": "See {IERC721-safeTransferFrom}."
      },
      "safeTransferFrom(address,address,uint256,bytes)": {
        "details": "See {IERC721-safeTransferFrom}."
      },
      "setApprovalForAll(address,bool)": {
        "details": "See {IERC721-setApprovalForAll}."
      },
      "supportsInterface(bytes4)": {
        "details": "See {IERC165-supportsInterface}."
      },
      "symbol()": {
        "details": "See {IERC721Metadata-symbol}."
      },
      "tokenURI(uint256)": {
        "details": "See {IERC721Metadata-tokenURI}."
      },
      "transferFrom(address,address,uint256)": {
        "details": "See {IERC721-transferFrom}."
      },
      "transferOwnership(address)": {
        "details": "Transfers ownership of the contract to a new account (`newOwner`). Can only be called by the current owner."
      }
    },
    "version": 1
  },
  "userdoc": {
    "kind": "user",
    "methods": {},
    "version": 1
  }
}